{
  "address": "0x965E86f46557C44A29da5c22cE833f44f5bc03d4",
  "abi": [
    {
      "inputs": [
        {
          "internalType": "address",
          "name": "priceFeedAddress",
          "type": "address"
        }
      ],
      "stateMutability": "nonpayable",
      "type": "constructor"
    },
    {
      "inputs": [],
      "name": "NotOwner",
      "type": "error"
    },
    {
      "stateMutability": "payable",
      "type": "fallback"
    },
    {
      "inputs": [],
      "name": "MIN_USD",
      "outputs": [
        {
          "internalType": "uint256",
          "name": "",
          "type": "uint256"
        }
      ],
      "stateMutability": "view",
      "type": "function"
    },
    {
      "inputs": [
        {
          "internalType": "address",
          "name": "",
          "type": "address"
        }
      ],
      "name": "addressAmountMap",
      "outputs": [
        {
          "internalType": "uint256",
          "name": "",
          "type": "uint256"
        }
      ],
      "stateMutability": "view",
      "type": "function"
    },
    {
      "inputs": [],
      "name": "fund",
      "outputs": [],
      "stateMutability": "payable",
      "type": "function"
    },
    {
      "inputs": [
        {
          "internalType": "uint256",
          "name": "",
          "type": "uint256"
        }
      ],
      "name": "funders",
      "outputs": [
        {
          "internalType": "address",
          "name": "",
          "type": "address"
        }
      ],
      "stateMutability": "view",
      "type": "function"
    },
    {
      "inputs": [],
      "name": "i_owner",
      "outputs": [
        {
          "internalType": "address",
          "name": "",
          "type": "address"
        }
      ],
      "stateMutability": "view",
      "type": "function"
    },
    {
      "inputs": [],
      "name": "priceFeed",
      "outputs": [
        {
          "internalType": "contract AggregatorV3Interface",
          "name": "",
          "type": "address"
        }
      ],
      "stateMutability": "view",
      "type": "function"
    },
    {
      "inputs": [],
      "name": "withdraw",
      "outputs": [],
      "stateMutability": "payable",
      "type": "function"
    },
    {
      "stateMutability": "payable",
      "type": "receive"
    }
  ],
  "transactionHash": "0x7793212a8943cb6d4b7551332cabe3ef37215415f0ef8d2d86c285e99beebf2d",
  "args": [
    "0x8A753747A1Fa494EC906cE90E9f37563A8AF630e"
  ],
  "numDeployments": 1,
  "solcInputHash": "341e1ddffc545a29a2a924de242d48a3",
  "bytecode": "0x60a06040523480156200001157600080fd5b506040516200111a3803806200111a833981810160405281019062000037919062000120565b3373ffffffffffffffffffffffffffffffffffffffff1660808173ffffffffffffffffffffffffffffffffffffffff1660601b8152505080600260006101000a81548173ffffffffffffffffffffffffffffffffffffffff021916908373ffffffffffffffffffffffffffffffffffffffff1602179055505062000152565b600080fd5b600073ffffffffffffffffffffffffffffffffffffffff82169050919050565b6000620000e882620000bb565b9050919050565b620000fa81620000db565b81146200010657600080fd5b50565b6000815190506200011a81620000ef565b92915050565b600060208284031215620001395762000138620000b6565b5b6000620001498482850162000109565b91505092915050565b60805160601c610fa262000178600039600081816102e501526106270152610fa26000f3fe6080604052600436106100745760003560e01c8063741bef1a1161004e578063741bef1a146100ff578063b60d42881461012a578063dba6335f14610134578063dc0d3dff1461015f57610083565b8063213dbea21461008d5780633ccfd60b146100b857806349fa0650146100c257610083565b366100835761008161019c565b005b61008b61019c565b005b34801561009957600080fd5b506100a26102d6565b6040516100af9190610824565b60405180910390f35b6100c06102e3565b005b3480156100ce57600080fd5b506100e960048036038101906100e491906108a2565b6105e7565b6040516100f69190610824565b60405180910390f35b34801561010b57600080fd5b506101146105ff565b604051610121919061092e565b60405180910390f35b61013261019c565b005b34801561014057600080fd5b50610149610625565b6040516101569190610958565b60405180910390f35b34801561016b57600080fd5b506101866004803603810190610181919061099f565b610649565b6040516101939190610958565b60405180910390f35b6802b5e3af16b18800006101db600260009054906101000a900473ffffffffffffffffffffffffffffffffffffffff163461068890919063ffffffff16565b101561021c576040517f08c379a000000000000000000000000000000000000000000000000000000000815260040161021390610a29565b60405180910390fd5b346000803373ffffffffffffffffffffffffffffffffffffffff1673ffffffffffffffffffffffffffffffffffffffff168152602001908152602001600020600082825461026a9190610a78565b925050819055506001339080600181540180825580915050600190039060005260206000200160009091909190916101000a81548173ffffffffffffffffffffffffffffffffffffffff021916908373ffffffffffffffffffffffffffffffffffffffff160217905550565b6802b5e3af16b188000081565b7f000000000000000000000000000000000000000000000000000000000000000073ffffffffffffffffffffffffffffffffffffffff163373ffffffffffffffffffffffffffffffffffffffff1614610368576040517f30cd747100000000000000000000000000000000000000000000000000000000815260040160405180910390fd5b3373ffffffffffffffffffffffffffffffffffffffff166108fc479081150290604051600060405180830381858888f193505050501580156103ae573d6000803e3d6000fd5b5060003373ffffffffffffffffffffffffffffffffffffffff166108fc479081150290604051600060405180830381858888f19350505050905080610428576040517f08c379a000000000000000000000000000000000000000000000000000000000815260040161041f90610b1a565b60405180910390fd5b6000803373ffffffffffffffffffffffffffffffffffffffff164760405161044f90610b6b565b60006040518083038185875af1925050503d806000811461048c576040519150601f19603f3d011682016040523d82523d6000602084013e610491565b606091505b5091509150816104d6576040517f08c379a00000000000000000000000000000000000000000000000000000000081526004016104cd90610bcc565b60405180910390fd5b60005b600180549050811015610581576000600182815481106104fc576104fb610bec565b5b9060005260206000200160009054906101000a900473ffffffffffffffffffffffffffffffffffffffff16905060008060008373ffffffffffffffffffffffffffffffffffffffff1673ffffffffffffffffffffffffffffffffffffffff1681526020019081526020016000208190555050808061057990610c1b565b9150506104d9565b50600067ffffffffffffffff81111561059d5761059c610c64565b5b6040519080825280602002602001820160405280156105cb5781602001602082028036833780820191505090505b50600190805190602001906105e1929190610764565b50505050565b60006020528060005260406000206000915090505481565b600260009054906101000a900473ffffffffffffffffffffffffffffffffffffffff1681565b7f000000000000000000000000000000000000000000000000000000000000000081565b6001818154811061065957600080fd5b906000526020600020016000915054906101000a900473ffffffffffffffffffffffffffffffffffffffff1681565b600080610694836106c4565b90506000670de0b6b3a764000085836106ad9190610c93565b6106b79190610d1c565b9050809250505092915050565b6000808273ffffffffffffffffffffffffffffffffffffffff1663feaf968c6040518163ffffffff1660e01b815260040160a06040518083038186803b15801561070d57600080fd5b505afa158015610721573d6000803e3d6000fd5b505050506040513d601f19601f820116820180604052508101906107459190610dda565b5050509150506402540be4008161075c9190610e55565b915050919050565b8280548282559060005260206000209081019282156107dd579160200282015b828111156107dc5782518260006101000a81548173ffffffffffffffffffffffffffffffffffffffff021916908373ffffffffffffffffffffffffffffffffffffffff16021790555091602001919060010190610784565b5b5090506107ea91906107ee565b5090565b5b808211156108075760008160009055506001016107ef565b5090565b6000819050919050565b61081e8161080b565b82525050565b60006020820190506108396000830184610815565b92915050565b600080fd5b600073ffffffffffffffffffffffffffffffffffffffff82169050919050565b600061086f82610844565b9050919050565b61087f81610864565b811461088a57600080fd5b50565b60008135905061089c81610876565b92915050565b6000602082840312156108b8576108b761083f565b5b60006108c68482850161088d565b91505092915050565b6000819050919050565b60006108f46108ef6108ea84610844565b6108cf565b610844565b9050919050565b6000610906826108d9565b9050919050565b6000610918826108fb565b9050919050565b6109288161090d565b82525050565b6000602082019050610943600083018461091f565b92915050565b61095281610864565b82525050565b600060208201905061096d6000830184610949565b92915050565b61097c8161080b565b811461098757600080fd5b50565b60008135905061099981610973565b92915050565b6000602082840312156109b5576109b461083f565b5b60006109c38482850161098a565b91505092915050565b600082825260208201905092915050565b7f596f75206e65656420746f2066756e64206d6f72652045544821000000000000600082015250565b6000610a13601a836109cc565b9150610a1e826109dd565b602082019050919050565b60006020820190508181036000830152610a4281610a06565b9050919050565b7f4e487b7100000000000000000000000000000000000000000000000000000000600052601160045260246000fd5b6000610a838261080b565b9150610a8e8361080b565b9250827fffffffffffffffffffffffffffffffffffffffffffffffffffffffffffffffff03821115610ac357610ac2610a49565b5b828201905092915050565b7f53656e64206661696c6564210000000000000000000000000000000000000000600082015250565b6000610b04600c836109cc565b9150610b0f82610ace565b602082019050919050565b60006020820190508181036000830152610b3381610af7565b9050919050565b600081905092915050565b50565b6000610b55600083610b3a565b9150610b6082610b45565b600082019050919050565b6000610b7682610b48565b9150819050919050565b7f43616c6c206661696c6564210000000000000000000000000000000000000000600082015250565b6000610bb6600c836109cc565b9150610bc182610b80565b602082019050919050565b60006020820190508181036000830152610be581610ba9565b9050919050565b7f4e487b7100000000000000000000000000000000000000000000000000000000600052603260045260246000fd5b6000610c268261080b565b91507fffffffffffffffffffffffffffffffffffffffffffffffffffffffffffffffff821415610c5957610c58610a49565b5b600182019050919050565b7f4e487b7100000000000000000000000000000000000000000000000000000000600052604160045260246000fd5b6000610c9e8261080b565b9150610ca98361080b565b9250817fffffffffffffffffffffffffffffffffffffffffffffffffffffffffffffffff0483118215151615610ce257610ce1610a49565b5b828202905092915050565b7f4e487b7100000000000000000000000000000000000000000000000000000000600052601260045260246000fd5b6000610d278261080b565b9150610d328361080b565b925082610d4257610d41610ced565b5b828204905092915050565b600069ffffffffffffffffffff82169050919050565b610d6c81610d4d565b8114610d7757600080fd5b50565b600081519050610d8981610d63565b92915050565b6000819050919050565b610da281610d8f565b8114610dad57600080fd5b50565b600081519050610dbf81610d99565b92915050565b600081519050610dd481610973565b92915050565b600080600080600060a08688031215610df657610df561083f565b5b6000610e0488828901610d7a565b9550506020610e1588828901610db0565b9450506040610e2688828901610dc5565b9350506060610e3788828901610dc5565b9250506080610e4888828901610d7a565b9150509295509295909350565b6000610e6082610d8f565b9150610e6b83610d8f565b9250827f7fffffffffffffffffffffffffffffffffffffffffffffffffffffffffffffff0482116000841360008413161615610eaa57610ea9610a49565b5b817f80000000000000000000000000000000000000000000000000000000000000000583126000841260008413161615610ee757610ee6610a49565b5b827f80000000000000000000000000000000000000000000000000000000000000000582126000841360008412161615610f2457610f23610a49565b5b827f7fffffffffffffffffffffffffffffffffffffffffffffffffffffffffffffff0582126000841260008412161615610f6157610f60610a49565b5b82820290509291505056fea26469706673582212206f3bd38655740bba627be9fea975052079dddff95ca04472898994a564e23add64736f6c63430008080033",
  "devdoc": {
    "kind": "dev",
    "methods": {},
    "version": 1
  },
  "userdoc": {
    "kind": "user",
    "methods": {},
    "version": 1
  },
  "storageLayout": {
    "storage": [
      {
        "astId": 65,
        "contract": "contracts/FundMe.sol:FundMe",
        "label": "addressAmountMap",
        "offset": 0,
        "slot": "0",
        "type": "t_mapping(t_address,t_uint256)"
      },
      {
        "astId": 68,
        "contract": "contracts/FundMe.sol:FundMe",
        "label": "funders",
        "offset": 0,
        "slot": "1",
        "type": "t_array(t_address)dyn_storage"
      },
      {
        "astId": 73,
        "contract": "contracts/FundMe.sol:FundMe",
        "label": "priceFeed",
        "offset": 0,
        "slot": "2",
        "type": "t_contract(AggregatorV3Interface)45"
      }
    ],
    "types": {
      "t_address": {
        "encoding": "inplace",
        "label": "address",
        "numberOfBytes": "20"
      },
      "t_array(t_address)dyn_storage": {
        "base": "t_address",
        "encoding": "dynamic_array",
        "label": "address[]",
        "numberOfBytes": "32"
      },
      "t_contract(AggregatorV3Interface)45": {
        "encoding": "inplace",
        "label": "contract AggregatorV3Interface",
        "numberOfBytes": "20"
      },
      "t_mapping(t_address,t_uint256)": {
        "encoding": "mapping",
        "key": "t_address",
        "label": "mapping(address => uint256)",
        "numberOfBytes": "32",
        "value": "t_uint256"
      },
      "t_uint256": {
        "encoding": "inplace",
        "label": "uint256",
        "numberOfBytes": "32"
      }
    }
  }
}