{
  "address": "0xCf7Ed3AccA5a467e9e704C703E8D87F634fB0Fc9",
  "abi": [
    {
      "inputs": [
        {
          "internalType": "address",
          "name": "applePriceFeed",
          "type": "address"
        },
        {
          "internalType": "address",
          "name": "googlePriceFeed",
          "type": "address"
        },
        {
          "internalType": "address",
          "name": "microsoftPriceFeed",
          "type": "address"
        }
      ],
      "stateMutability": "nonpayable",
      "type": "constructor"
    },
    {
      "inputs": [
        {
          "internalType": "address payable",
          "name": "borrowerAddress",
          "type": "address"
        },
        {
          "internalType": "uint256",
          "name": "appleStocks",
          "type": "uint256"
        },
        {
          "internalType": "uint256",
          "name": "microsoftStocks",
          "type": "uint256"
        },
        {
          "internalType": "uint256",
          "name": "googleStocks",
          "type": "uint256"
        }
      ],
      "name": "createToken",
      "outputs": [],
      "stateMutability": "nonpayable",
      "type": "function"
    },
    {
      "inputs": [
        {
          "internalType": "address",
          "name": "owner",
          "type": "address"
        },
        {
          "internalType": "address",
          "name": "spender",
          "type": "address"
        }
      ],
      "name": "getAllowance",
      "outputs": [
        {
          "internalType": "uint256",
          "name": "",
          "type": "uint256"
        }
      ],
      "stateMutability": "view",
      "type": "function"
    },
    {
      "inputs": [],
      "name": "getApplePrice",
      "outputs": [
        {
          "internalType": "uint256",
          "name": "",
          "type": "uint256"
        }
      ],
      "stateMutability": "view",
      "type": "function"
    },
    {
      "inputs": [
        {
          "internalType": "address",
          "name": "owner",
          "type": "address"
        },
        {
          "internalType": "address",
          "name": "account",
          "type": "address"
        }
      ],
      "name": "getBalance",
      "outputs": [
        {
          "internalType": "uint256",
          "name": "",
          "type": "uint256"
        }
      ],
      "stateMutability": "view",
      "type": "function"
    },
    {
      "inputs": [
        {
          "internalType": "address",
          "name": "borrowerAddress",
          "type": "address"
        },
        {
          "internalType": "string",
          "name": "equityName",
          "type": "string"
        }
      ],
      "name": "getEquityCount",
      "outputs": [
        {
          "internalType": "uint256",
          "name": "",
          "type": "uint256"
        }
      ],
      "stateMutability": "view",
      "type": "function"
    },
    {
      "inputs": [],
      "name": "getGooglePrice",
      "outputs": [
        {
          "internalType": "uint256",
          "name": "",
          "type": "uint256"
        }
      ],
      "stateMutability": "view",
      "type": "function"
    },
    {
      "inputs": [],
      "name": "getMicrosoftPrice",
      "outputs": [
        {
          "internalType": "uint256",
          "name": "",
          "type": "uint256"
        }
      ],
      "stateMutability": "view",
      "type": "function"
    },
    {
      "inputs": [],
      "name": "getNumber",
      "outputs": [
        {
          "internalType": "uint256",
          "name": "",
          "type": "uint256"
        }
      ],
      "stateMutability": "view",
      "type": "function"
    },
    {
      "inputs": [
        {
          "internalType": "address",
          "name": "borrowerAddress",
          "type": "address"
        }
      ],
      "name": "getOwner",
      "outputs": [
        {
          "internalType": "address",
          "name": "",
          "type": "address"
        }
      ],
      "stateMutability": "view",
      "type": "function"
    },
    {
      "inputs": [
        {
          "internalType": "address",
          "name": "borrowerAddress",
          "type": "address"
        }
      ],
      "name": "getToken",
      "outputs": [
        {
          "internalType": "address",
          "name": "",
          "type": "address"
        }
      ],
      "stateMutability": "view",
      "type": "function"
    },
    {
      "inputs": [
        {
          "internalType": "address",
          "name": "borrowerAddress",
          "type": "address"
        }
      ],
      "name": "getValuation",
      "outputs": [
        {
          "internalType": "uint256",
          "name": "",
          "type": "uint256"
        }
      ],
      "stateMutability": "view",
      "type": "function"
    },
    {
      "inputs": [],
      "name": "number",
      "outputs": [
        {
          "internalType": "uint256",
          "name": "",
          "type": "uint256"
        }
      ],
      "stateMutability": "view",
      "type": "function"
    },
    {
      "inputs": [
        {
          "internalType": "address",
          "name": "",
          "type": "address"
        }
      ],
      "name": "personTokenMapping",
      "outputs": [
        {
          "internalType": "contract EquityToken",
          "name": "",
          "type": "address"
        }
      ],
      "stateMutability": "view",
      "type": "function"
    },
    {
      "inputs": [],
      "name": "s_applePriceFeed",
      "outputs": [
        {
          "internalType": "address",
          "name": "",
          "type": "address"
        }
      ],
      "stateMutability": "view",
      "type": "function"
    },
    {
      "inputs": [],
      "name": "s_googlePriceFeed",
      "outputs": [
        {
          "internalType": "address",
          "name": "",
          "type": "address"
        }
      ],
      "stateMutability": "view",
      "type": "function"
    },
    {
      "inputs": [],
      "name": "s_microsoftPriceFeed",
      "outputs": [
        {
          "internalType": "address",
          "name": "",
          "type": "address"
        }
      ],
      "stateMutability": "view",
      "type": "function"
    }
  ],
  "transactionHash": "0xf45f326734fe13650968b65749f6f4cfe21aa5a72836dceb8830a171ec9e71d2",
  "args": [
    "0x5FbDB2315678afecb367f032d93F642f64180aa3",
    "0xe7f1725E7734CE288F8367e1Bb143E90bb3F0512",
    "0x9fE46736679d2D9a65F0992F2272dE9f3c7fa6e0"
  ],
  "numDeployments": 1,
  "solcInputHash": "e81f62d141f1d0e9b54492213c9b52d1",
  "bytecode": "0x60a06040523480156200001157600080fd5b5060405162003a3c38038062003a3c833981810160405281019062000037919062000159565b82600160006101000a81548173ffffffffffffffffffffffffffffffffffffffff021916908373ffffffffffffffffffffffffffffffffffffffff16021790555081600260006101000a81548173ffffffffffffffffffffffffffffffffffffffff021916908373ffffffffffffffffffffffffffffffffffffffff16021790555080600360006101000a81548173ffffffffffffffffffffffffffffffffffffffff021916908373ffffffffffffffffffffffffffffffffffffffff1602179055503373ffffffffffffffffffffffffffffffffffffffff1660808173ffffffffffffffffffffffffffffffffffffffff1660601b81525050600560048190555050505062000208565b6000815190506200015381620001ee565b92915050565b600080600060608486031215620001755762000174620001e9565b5b6000620001858682870162000142565b9350506020620001988682870162000142565b9250506040620001ab8682870162000142565b9150509250925092565b6000620001c282620001c9565b9050919050565b600073ffffffffffffffffffffffffffffffffffffffff82169050919050565b600080fd5b620001f981620001b5565b81146200020557600080fd5b50565b60805160601c61381562000227600039600061064001526138156000f3fe60806040523480156200001157600080fd5b5060043610620001185760003560e01c8063b4c982f511620000a5578063d6ba7628116200006f578063d6ba7628146200032b578063f2c9ecd8146200034d578063f6837650146200036f578063fa54416114620003915762000118565b8063b4c982f51462000267578063c7f86c10146200029d578063d4fac45d14620002d3578063d50592e014620003095762000118565b80635977043811620000e75780635977043814620001cb5780638381f58a1462000201578063a30f92f91462000223578063a7c7c63914620002455762000118565b80630aace652146200011d5780630af4187d146200015357806328621bcd14620001895780633b42896314620001ab575b600080fd5b6200013b600480360381019062000135919062000e24565b620003c7565b6040516200014a9190620011f7565b60405180910390f35b6200017160048036038101906200016b919062000efa565b620004b0565b604051620001809190620011f7565b60405180910390f35b62000193620005a9565b604051620001a29190620010dc565b60405180910390f35b620001c96004803603810190620001c3919062000e88565b620005cf565b005b620001e96004803603810190620001e3919062000e24565b62000724565b604051620001f89190620010dc565b60405180910390f35b6200020b62000791565b6040516200021a9190620011f7565b60405180910390f35b6200022d62000797565b6040516200023c9190620011f7565b60405180910390f35b6200024f6200084b565b6040516200025e9190620010dc565b60405180910390f35b6200028560048036038101906200027f919062000e24565b62000871565b604051620002949190620011b4565b60405180910390f35b620002bb6004803603810190620002b5919062000f41565b620008a4565b604051620002ca9190620011f7565b60405180910390f35b620002f16004803603810190620002eb919062000efa565b6200099e565b604051620003009190620011f7565b60405180910390f35b6200031362000a95565b604051620003229190620011f7565b60405180910390f35b6200033562000b49565b604051620003449190620010dc565b60405180910390f35b6200035762000b6f565b604051620003669190620011f7565b60405180910390f35b6200037962000b79565b604051620003889190620011f7565b60405180910390f35b620003af6004803603810190620003a9919062000e24565b62000c2d565b604051620003be9190620010dc565b60405180910390f35b60008060008373ffffffffffffffffffffffffffffffffffffffff1673ffffffffffffffffffffffffffffffffffffffff16815260200190815260200160002060009054906101000a900473ffffffffffffffffffffffffffffffffffffffff1673ffffffffffffffffffffffffffffffffffffffff1663efe4227a6040518163ffffffff1660e01b815260040160206040518083038186803b1580156200046e57600080fd5b505afa15801562000483573d6000803e3d6000fd5b505050506040513d601f19601f82011682018060405250810190620004a9919062000fab565b9050919050565b60008060008473ffffffffffffffffffffffffffffffffffffffff1673ffffffffffffffffffffffffffffffffffffffff16815260200190815260200160002060009054906101000a900473ffffffffffffffffffffffffffffffffffffffff1673ffffffffffffffffffffffffffffffffffffffff1663dd62ed3e84846040518363ffffffff1660e01b81526004016200054d92919062001187565b60206040518083038186803b1580156200056657600080fd5b505afa1580156200057b573d6000803e3d6000fd5b505050506040513d601f19601f82011682018060405250810190620005a1919062000fab565b905092915050565b600260009054906101000a900473ffffffffffffffffffffffffffffffffffffffff1681565b600084848484600160009054906101000a900473ffffffffffffffffffffffffffffffffffffffff16600260009054906101000a900473ffffffffffffffffffffffffffffffffffffffff16600360009054906101000a900473ffffffffffffffffffffffffffffffffffffffff167f00000000000000000000000000000000000000000000000000000000000000006040516200066d9062000d16565b62000680989796959493929190620010f9565b604051809103906000f0801580156200069d573d6000803e3d6000fd5b509050806000808773ffffffffffffffffffffffffffffffffffffffff1673ffffffffffffffffffffffffffffffffffffffff16815260200190815260200160002060006101000a81548173ffffffffffffffffffffffffffffffffffffffff021916908373ffffffffffffffffffffffffffffffffffffffff1602179055505050505050565b6000806000808473ffffffffffffffffffffffffffffffffffffffff1673ffffffffffffffffffffffffffffffffffffffff16815260200190815260200160002060009054906101000a900473ffffffffffffffffffffffffffffffffffffffff16905080915050919050565b60045481565b600080600260009054906101000a900473ffffffffffffffffffffffffffffffffffffffff1673ffffffffffffffffffffffffffffffffffffffff1663feaf968c6040518163ffffffff1660e01b815260040160a06040518083038186803b1580156200080357600080fd5b505afa15801562000818573d6000803e3d6000fd5b505050506040513d601f19601f820116820180604052508101906200083e919062000fdd565b5050509150508091505090565b600360009054906101000a900473ffffffffffffffffffffffffffffffffffffffff1681565b60006020528060005260406000206000915054906101000a900473ffffffffffffffffffffffffffffffffffffffff1681565b60008060008573ffffffffffffffffffffffffffffffffffffffff1673ffffffffffffffffffffffffffffffffffffffff16815260200190815260200160002060009054906101000a900473ffffffffffffffffffffffffffffffffffffffff1673ffffffffffffffffffffffffffffffffffffffff1663454c18d684846040518363ffffffff1660e01b815260040162000941929190620011d1565b60206040518083038186803b1580156200095a57600080fd5b505afa1580156200096f573d6000803e3d6000fd5b505050506040513d601f19601f8201168201806040525081019062000995919062000fab565b90509392505050565b60008060008473ffffffffffffffffffffffffffffffffffffffff1673ffffffffffffffffffffffffffffffffffffffff16815260200190815260200160002060009054906101000a900473ffffffffffffffffffffffffffffffffffffffff1673ffffffffffffffffffffffffffffffffffffffff166370a08231836040518263ffffffff1660e01b815260040162000a399190620010dc565b60206040518083038186803b15801562000a5257600080fd5b505afa15801562000a67573d6000803e3d6000fd5b505050506040513d601f19601f8201168201806040525081019062000a8d919062000fab565b905092915050565b600080600360009054906101000a900473ffffffffffffffffffffffffffffffffffffffff1673ffffffffffffffffffffffffffffffffffffffff1663feaf968c6040518163ffffffff1660e01b815260040160a06040518083038186803b15801562000b0157600080fd5b505afa15801562000b16573d6000803e3d6000fd5b505050506040513d601f19601f8201168201806040525081019062000b3c919062000fdd565b5050509150508091505090565b600160009054906101000a900473ffffffffffffffffffffffffffffffffffffffff1681565b6000600454905090565b600080600160009054906101000a900473ffffffffffffffffffffffffffffffffffffffff1673ffffffffffffffffffffffffffffffffffffffff1663feaf968c6040518163ffffffff1660e01b815260040160a06040518083038186803b15801562000be557600080fd5b505afa15801562000bfa573d6000803e3d6000fd5b505050506040513d601f19601f8201168201806040525081019062000c20919062000fdd565b5050509150508091505090565b60008060008373ffffffffffffffffffffffffffffffffffffffff1673ffffffffffffffffffffffffffffffffffffffff16815260200190815260200160002060009054906101000a900473ffffffffffffffffffffffffffffffffffffffff1673ffffffffffffffffffffffffffffffffffffffff1663893d20e86040518163ffffffff1660e01b815260040160206040518083038186803b15801562000cd457600080fd5b505afa15801562000ce9573d6000803e3d6000fd5b505050506040513d601f19601f8201168201806040525081019062000d0f919062000e56565b9050919050565b612451806200138f83390190565b60008135905062000d35816200130c565b92915050565b60008151905062000d4c816200130c565b92915050565b60008135905062000d638162001326565b92915050565b60008151905062000d7a8162001340565b92915050565b60008083601f84011262000d995762000d98620012e7565b5b8235905067ffffffffffffffff81111562000db95762000db8620012e2565b5b60208301915083600182028301111562000dd85762000dd7620012ec565b5b9250929050565b60008135905062000df0816200135a565b92915050565b60008151905062000e07816200135a565b92915050565b60008151905062000e1e8162001374565b92915050565b60006020828403121562000e3d5762000e3c620012f6565b5b600062000e4d8482850162000d24565b91505092915050565b60006020828403121562000e6f5762000e6e620012f6565b5b600062000e7f8482850162000d3b565b91505092915050565b6000806000806080858703121562000ea55762000ea4620012f6565b5b600062000eb58782880162000d52565b945050602062000ec88782880162000ddf565b935050604062000edb8782880162000ddf565b925050606062000eee8782880162000ddf565b91505092959194509250565b6000806040838503121562000f145762000f13620012f6565b5b600062000f248582860162000d24565b925050602062000f378582860162000d24565b9150509250929050565b60008060006040848603121562000f5d5762000f5c620012f6565b5b600062000f6d8682870162000d24565b935050602084013567ffffffffffffffff81111562000f915762000f90620012f1565b5b62000f9f8682870162000d80565b92509250509250925092565b60006020828403121562000fc45762000fc3620012f6565b5b600062000fd48482850162000df6565b91505092915050565b600080600080600060a0868803121562000ffc5762000ffb620012f6565b5b60006200100c8882890162000e0d565b95505060206200101f8882890162000d69565b9450506040620010328882890162000df6565b9350506060620010458882890162000df6565b9250506080620010588882890162000e0d565b9150509295509295909350565b620010708162001239565b82525050565b620010818162001225565b82525050565b620010928162001297565b82525050565b6000620010a6838562001214565b9350620010b5838584620012d3565b620010c083620012fb565b840190509392505050565b620010d68162001277565b82525050565b6000602082019050620010f3600083018462001076565b92915050565b60006101008201905062001111600083018b62001065565b62001120602083018a620010cb565b6200112f6040830189620010cb565b6200113e6060830188620010cb565b6200114d608083018762001076565b6200115c60a083018662001076565b6200116b60c083018562001076565b6200117a60e083018462001076565b9998505050505050505050565b60006040820190506200119e600083018562001076565b620011ad602083018462001076565b9392505050565b6000602082019050620011cb600083018462001087565b92915050565b60006020820190508181036000830152620011ee81848662001098565b90509392505050565b60006020820190506200120e6000830184620010cb565b92915050565b600082825260208201905092915050565b6000620012328262001257565b9050919050565b6000620012468262001257565b9050919050565b6000819050919050565b600073ffffffffffffffffffffffffffffffffffffffff82169050919050565b6000819050919050565b600069ffffffffffffffffffff82169050919050565b6000620012a482620012ab565b9050919050565b6000620012b882620012bf565b9050919050565b6000620012cc8262001257565b9050919050565b82818337600083830152505050565b600080fd5b600080fd5b600080fd5b600080fd5b600080fd5b6000601f19601f8301169050919050565b620013178162001225565b81146200132357600080fd5b50565b620013318162001239565b81146200133d57600080fd5b50565b6200134b816200124d565b81146200135757600080fd5b50565b620013658162001277565b81146200137157600080fd5b50565b6200137f8162001281565b81146200138b57600080fd5b5056fe60a06040523480156200001157600080fd5b506040516200245138038062002451833981810160405281019062000037919062000536565b6040518060400160405280600b81526020017f457175697479546f6b656e0000000000000000000000000000000000000000008152506040518060400160405280600381526020017f45515400000000000000000000000000000000000000000000000000000000008152508160039080519060200190620000bb92919062000441565b508060049080519060200190620000d492919062000441565b5050508073ffffffffffffffffffffffffffffffffffffffff1660808173ffffffffffffffffffffffffffffffffffffffff1660601b815250508660066040516200011f90620006da565b9081526020016040518091039020819055508560066040516200014290620006c3565b9081526020016040518091039020819055508460066040516200016590620006ac565b90815260200160405180910390208190555087600560006101000a81548173ffffffffffffffffffffffffffffffffffffffff021916908373ffffffffffffffffffffffffffffffffffffffff16021790555083600760006101000a81548173ffffffffffffffffffffffffffffffffffffffff021916908373ffffffffffffffffffffffffffffffffffffffff16021790555082600860006101000a81548173ffffffffffffffffffffffffffffffffffffffff021916908373ffffffffffffffffffffffffffffffffffffffff16021790555081600960006101000a81548173ffffffffffffffffffffffffffffffffffffffff021916908373ffffffffffffffffffffffffffffffffffffffff160217905550620002b0600560009054906101000a900473ffffffffffffffffffffffffffffffffffffffff166001620002be60201b60201c565b505050505050505062000986565b600073ffffffffffffffffffffffffffffffffffffffff168273ffffffffffffffffffffffffffffffffffffffff16141562000331576040517f08c379a00000000000000000000000000000000000000000000000000000000081526004016200032890620006f1565b60405180910390fd5b62000345600083836200043760201b60201c565b80600260008282546200035991906200074c565b92505081905550806000808473ffffffffffffffffffffffffffffffffffffffff1673ffffffffffffffffffffffffffffffffffffffff1681526020019081526020016000206000828254620003b091906200074c565b925050819055508173ffffffffffffffffffffffffffffffffffffffff16600073ffffffffffffffffffffffffffffffffffffffff167fddf252ad1be2c89b69c2b068fc378daa952ba7f163c4a11628f55a4df523b3ef8360405162000417919062000713565b60405180910390a362000433600083836200043c60201b60201c565b5050565b505050565b505050565b8280546200044f90620007fb565b90600052602060002090601f016020900481019282620004735760008555620004bf565b82601f106200048e57805160ff1916838001178555620004bf565b82800160010185558215620004bf579182015b82811115620004be578251825591602001919060010190620004a1565b5b509050620004ce9190620004d2565b5090565b5b80821115620004ed576000816000905550600101620004d3565b5090565b600081519050620005028162000938565b92915050565b600081519050620005198162000952565b92915050565b60008151905062000530816200096c565b92915050565b600080600080600080600080610100898b0312156200055a57620005596200088f565b5b60006200056a8b828c0162000508565b98505060206200057d8b828c016200051f565b9750506040620005908b828c016200051f565b9650506060620005a38b828c016200051f565b9550506080620005b68b828c01620004f1565b94505060a0620005c98b828c01620004f1565b93505060c0620005dc8b828c01620004f1565b92505060e0620005ef8b828c01620004f1565b9150509295985092959890939650565b60006200060e60068362000741565b91506200061b8262000894565b600682019050919050565b60006200063560098362000741565b91506200064282620008bd565b600982019050919050565b60006200065c60058362000741565b91506200066982620008e6565b600582019050919050565b600062000683601f8362000730565b915062000690826200090f565b602082019050919050565b620006a681620007f1565b82525050565b6000620006b982620005ff565b9150819050919050565b6000620006d08262000626565b9150819050919050565b6000620006e7826200064d565b9150819050919050565b600060208201905081810360008301526200070c8162000674565b9050919050565b60006020820190506200072a60008301846200069b565b92915050565b600082825260208201905092915050565b600081905092915050565b60006200075982620007f1565b91506200076683620007f1565b9250827fffffffffffffffffffffffffffffffffffffffffffffffffffffffffffffffff038211156200079e576200079d62000831565b5b828201905092915050565b6000620007b682620007d1565b9050919050565b6000620007ca82620007d1565b9050919050565b600073ffffffffffffffffffffffffffffffffffffffff82169050919050565b6000819050919050565b600060028204905060018216806200081457607f821691505b602082108114156200082b576200082a62000860565b5b50919050565b7f4e487b7100000000000000000000000000000000000000000000000000000000600052601160045260246000fd5b7f4e487b7100000000000000000000000000000000000000000000000000000000600052602260045260246000fd5b600080fd5b7f474f4f474c450000000000000000000000000000000000000000000000000000600082015250565b7f4d4943524f534f46540000000000000000000000000000000000000000000000600082015250565b7f4150504c45000000000000000000000000000000000000000000000000000000600082015250565b7f45524332303a206d696e7420746f20746865207a65726f206164647265737300600082015250565b6200094381620007a9565b81146200094f57600080fd5b50565b6200095d81620007bd565b81146200096957600080fd5b50565b6200097781620007f1565b81146200098357600080fd5b50565b60805160601c611aac620009a5600039600061056c0152611aac6000f3fe608060405234801561001057600080fd5b50600436106101165760003560e01c806395d89b41116100a2578063c291ea4411610071578063c291ea441461031f578063d50592e01461033d578063dd62ed3e1461035b578063efe4227a1461038b578063f6837650146103a957610116565b806395d89b4114610283578063a30f92f9146102a1578063a457c2d7146102bf578063a9059cbb146102ef57610116565b8063313ce567116100e9578063313ce567146101b757806339509351146101d5578063454c18d61461020557806370a0823114610235578063893d20e81461026557610116565b806306fdde031461011b578063095ea7b31461013957806318160ddd1461016957806323b872dd14610187575b600080fd5b6101236103c7565b604051610130919061141c565b60405180910390f35b610153600480360381019061014e919061108e565b610459565b6040516101609190611401565b60405180910390f35b61017161047c565b60405161017e919061151e565b60405180910390f35b6101a1600480360381019061019c919061103b565b610486565b6040516101ae9190611401565b60405180910390f35b6101bf6104b5565b6040516101cc9190611539565b60405180910390f35b6101ef60048036038101906101ea919061108e565b6104be565b6040516101fc9190611401565b60405180910390f35b61021f600480360381019061021a91906110ce565b6104f5565b60405161022c919061151e565b60405180910390f35b61024f600480360381019061024a9190610fce565b610520565b60405161025c919061151e565b60405180910390f35b61026d610568565b60405161027a91906113e6565b60405180910390f35b61028b610590565b604051610298919061141c565b60405180910390f35b6102a9610622565b6040516102b6919061151e565b60405180910390f35b6102d960048036038101906102d4919061108e565b6106d2565b6040516102e69190611401565b60405180910390f35b6103096004803603810190610304919061108e565b610749565b6040516103169190611401565b60405180910390f35b61032761076c565b60405161033491906113e6565b60405180910390f35b610345610796565b604051610352919061151e565b60405180910390f35b61037560048036038101906103709190610ffb565b610846565b604051610382919061151e565b60405180910390f35b6103936108cd565b6040516103a0919061151e565b60405180910390f35b6103b1610975565b6040516103be919061151e565b60405180910390f35b6060600380546103d6906116e2565b80601f0160208091040260200160405190810160405280929190818152602001828054610402906116e2565b801561044f5780601f106104245761010080835404028352916020019161044f565b820191906000526020600020905b81548152906001019060200180831161043257829003601f168201915b5050505050905090565b600080610464610a25565b9050610471818585610a2d565b600191505092915050565b6000600254905090565b600080610491610a25565b905061049e858285610bf8565b6104a9858585610c84565b60019150509392505050565b60006012905090565b6000806104c9610a25565b90506104ea8185856104db8589610846565b6104e5919061157b565b610a2d565b600191505092915050565b60006006838360405161050992919061138e565b908152602001604051809103902054905092915050565b60008060008373ffffffffffffffffffffffffffffffffffffffff1673ffffffffffffffffffffffffffffffffffffffff168152602001908152602001600020549050919050565b60007f0000000000000000000000000000000000000000000000000000000000000000905090565b60606004805461059f906116e2565b80601f01602080910402602001604051908101604052809291908181526020018280546105cb906116e2565b80156106185780601f106105ed57610100808354040283529160200191610618565b820191906000526020600020905b8154815290600101906020018083116105fb57829003601f168201915b5050505050905090565b600080600860009054906101000a900473ffffffffffffffffffffffffffffffffffffffff1673ffffffffffffffffffffffffffffffffffffffff1663feaf968c6040518163ffffffff1660e01b815260040160a06040518083038186803b15801561068d57600080fd5b505afa1580156106a1573d6000803e3d6000fd5b505050506040513d601f19601f820116820180604052508101906106c5919061111b565b5050509150508091505090565b6000806106dd610a25565b905060006106eb8286610846565b905083811015610730576040517f08c379a0000000000000000000000000000000000000000000000000000000008152600401610727906114fe565b60405180910390fd5b61073d8286868403610a2d565b60019250505092915050565b600080610754610a25565b9050610761818585610c84565b600191505092915050565b6000600560009054906101000a900473ffffffffffffffffffffffffffffffffffffffff16905090565b600080600960009054906101000a900473ffffffffffffffffffffffffffffffffffffffff1673ffffffffffffffffffffffffffffffffffffffff1663feaf968c6040518163ffffffff1660e01b815260040160a06040518083038186803b15801561080157600080fd5b505afa158015610815573d6000803e3d6000fd5b505050506040513d601f19601f82011682018060405250810190610839919061111b565b5050509150508091505090565b6000600160008473ffffffffffffffffffffffffffffffffffffffff1673ffffffffffffffffffffffffffffffffffffffff16815260200190815260200160002060008373ffffffffffffffffffffffffffffffffffffffff1673ffffffffffffffffffffffffffffffffffffffff16815260200190815260200160002054905092915050565b600060066040516108dd906113bc565b9081526020016040518091039020546108f4610796565b6108fe91906115d1565b600660405161090c906113a7565b908152602001604051809103902054610923610622565b61092d91906115d1565b600660405161093b906113d1565b908152602001604051809103902054610952610975565b61095c91906115d1565b610966919061157b565b610970919061157b565b905090565b600080600760009054906101000a900473ffffffffffffffffffffffffffffffffffffffff1673ffffffffffffffffffffffffffffffffffffffff1663feaf968c6040518163ffffffff1660e01b815260040160a06040518083038186803b1580156109e057600080fd5b505afa1580156109f4573d6000803e3d6000fd5b505050506040513d601f19601f82011682018060405250810190610a18919061111b565b5050509150508091505090565b600033905090565b600073ffffffffffffffffffffffffffffffffffffffff168373ffffffffffffffffffffffffffffffffffffffff161415610a9d576040517f08c379a0000000000000000000000000000000000000000000000000000000008152600401610a94906114de565b60405180910390fd5b600073ffffffffffffffffffffffffffffffffffffffff168273ffffffffffffffffffffffffffffffffffffffff161415610b0d576040517f08c379a0000000000000000000000000000000000000000000000000000000008152600401610b049061145e565b60405180910390fd5b80600160008573ffffffffffffffffffffffffffffffffffffffff1673ffffffffffffffffffffffffffffffffffffffff16815260200190815260200160002060008473ffffffffffffffffffffffffffffffffffffffff1673ffffffffffffffffffffffffffffffffffffffff168152602001908152602001600020819055508173ffffffffffffffffffffffffffffffffffffffff168373ffffffffffffffffffffffffffffffffffffffff167f8c5be1e5ebec7d5bd14f71427d1e84f3dd0314c0f7b2291e5b200ac8c7c3b92583604051610beb919061151e565b60405180910390a3505050565b6000610c048484610846565b90507fffffffffffffffffffffffffffffffffffffffffffffffffffffffffffffffff8114610c7e5781811015610c70576040517f08c379a0000000000000000000000000000000000000000000000000000000008152600401610c679061147e565b60405180910390fd5b610c7d8484848403610a2d565b5b50505050565b600073ffffffffffffffffffffffffffffffffffffffff168373ffffffffffffffffffffffffffffffffffffffff161415610cf4576040517f08c379a0000000000000000000000000000000000000000000000000000000008152600401610ceb906114be565b60405180910390fd5b600073ffffffffffffffffffffffffffffffffffffffff168273ffffffffffffffffffffffffffffffffffffffff161415610d64576040517f08c379a0000000000000000000000000000000000000000000000000000000008152600401610d5b9061143e565b60405180910390fd5b610d6f838383610f05565b60008060008573ffffffffffffffffffffffffffffffffffffffff1673ffffffffffffffffffffffffffffffffffffffff16815260200190815260200160002054905081811015610df5576040517f08c379a0000000000000000000000000000000000000000000000000000000008152600401610dec9061149e565b60405180910390fd5b8181036000808673ffffffffffffffffffffffffffffffffffffffff1673ffffffffffffffffffffffffffffffffffffffff16815260200190815260200160002081905550816000808573ffffffffffffffffffffffffffffffffffffffff1673ffffffffffffffffffffffffffffffffffffffff1681526020019081526020016000206000828254610e88919061157b565b925050819055508273ffffffffffffffffffffffffffffffffffffffff168473ffffffffffffffffffffffffffffffffffffffff167fddf252ad1be2c89b69c2b068fc378daa952ba7f163c4a11628f55a4df523b3ef84604051610eec919061151e565b60405180910390a3610eff848484610f0a565b50505050565b505050565b505050565b600081359050610f1e81611a1a565b92915050565b600081519050610f3381611a31565b92915050565b60008083601f840112610f4f57610f4e611777565b5b8235905067ffffffffffffffff811115610f6c57610f6b611772565b5b602083019150836001820283011115610f8857610f8761177c565b5b9250929050565b600081359050610f9e81611a48565b92915050565b600081519050610fb381611a48565b92915050565b600081519050610fc881611a5f565b92915050565b600060208284031215610fe457610fe3611786565b5b6000610ff284828501610f0f565b91505092915050565b6000806040838503121561101257611011611786565b5b600061102085828601610f0f565b925050602061103185828601610f0f565b9150509250929050565b60008060006060848603121561105457611053611786565b5b600061106286828701610f0f565b935050602061107386828701610f0f565b925050604061108486828701610f8f565b9150509250925092565b600080604083850312156110a5576110a4611786565b5b60006110b385828601610f0f565b92505060206110c485828601610f8f565b9150509250929050565b600080602083850312156110e5576110e4611786565b5b600083013567ffffffffffffffff81111561110357611102611781565b5b61110f85828601610f39565b92509250509250929050565b600080600080600060a0868803121561113757611136611786565b5b600061114588828901610fb9565b955050602061115688828901610f24565b945050604061116788828901610fa4565b935050606061117888828901610fa4565b925050608061118988828901610fb9565b9150509295509295909350565b61119f8161162b565b82525050565b6111ae8161163d565b82525050565b60006111c08385611570565b93506111cd8385846116a0565b82840190509392505050565b60006111e482611554565b6111ee818561155f565b93506111fe8185602086016116af565b6112078161178b565b840191505092915050565b600061121f60238361155f565b915061122a8261179c565b604082019050919050565b600061124260228361155f565b915061124d826117eb565b604082019050919050565b6000611265601d8361155f565b91506112708261183a565b602082019050919050565b600061128860268361155f565b915061129382611863565b604082019050919050565b60006112ab600683611570565b91506112b6826118b2565b600682019050919050565b60006112ce600983611570565b91506112d9826118db565b600982019050919050565b60006112f160258361155f565b91506112fc82611904565b604082019050919050565b600061131460248361155f565b915061131f82611953565b604082019050919050565b6000611337600583611570565b9150611342826119a2565b600582019050919050565b600061135a60258361155f565b9150611365826119cb565b604082019050919050565b61137981611673565b82525050565b6113888161167d565b82525050565b600061139b8284866111b4565b91508190509392505050565b60006113b28261129e565b9150819050919050565b60006113c7826112c1565b9150819050919050565b60006113dc8261132a565b9150819050919050565b60006020820190506113fb6000830184611196565b92915050565b600060208201905061141660008301846111a5565b92915050565b6000602082019050818103600083015261143681846111d9565b905092915050565b6000602082019050818103600083015261145781611212565b9050919050565b6000602082019050818103600083015261147781611235565b9050919050565b6000602082019050818103600083015261149781611258565b9050919050565b600060208201905081810360008301526114b78161127b565b9050919050565b600060208201905081810360008301526114d7816112e4565b9050919050565b600060208201905081810360008301526114f781611307565b9050919050565b600060208201905081810360008301526115178161134d565b9050919050565b60006020820190506115336000830184611370565b92915050565b600060208201905061154e600083018461137f565b92915050565b600081519050919050565b600082825260208201905092915050565b600081905092915050565b600061158682611673565b915061159183611673565b9250827fffffffffffffffffffffffffffffffffffffffffffffffffffffffffffffffff038211156115c6576115c5611714565b5b828201905092915050565b60006115dc82611673565b91506115e783611673565b9250817fffffffffffffffffffffffffffffffffffffffffffffffffffffffffffffffff04831182151516156116205761161f611714565b5b828202905092915050565b600061163682611653565b9050919050565b60008115159050919050565b6000819050919050565b600073ffffffffffffffffffffffffffffffffffffffff82169050919050565b6000819050919050565b600060ff82169050919050565b600069ffffffffffffffffffff82169050919050565b82818337600083830152505050565b60005b838110156116cd5780820151818401526020810190506116b2565b838111156116dc576000848401525b50505050565b600060028204905060018216806116fa57607f821691505b6020821081141561170e5761170d611743565b5b50919050565b7f4e487b7100000000000000000000000000000000000000000000000000000000600052601160045260246000fd5b7f4e487b7100000000000000000000000000000000000000000000000000000000600052602260045260246000fd5b600080fd5b600080fd5b600080fd5b600080fd5b600080fd5b6000601f19601f8301169050919050565b7f45524332303a207472616e7366657220746f20746865207a65726f206164647260008201527f6573730000000000000000000000000000000000000000000000000000000000602082015250565b7f45524332303a20617070726f766520746f20746865207a65726f20616464726560008201527f7373000000000000000000000000000000000000000000000000000000000000602082015250565b7f45524332303a20696e73756666696369656e7420616c6c6f77616e6365000000600082015250565b7f45524332303a207472616e7366657220616d6f756e742065786365656473206260008201527f616c616e63650000000000000000000000000000000000000000000000000000602082015250565b7f474f4f474c450000000000000000000000000000000000000000000000000000600082015250565b7f4d4943524f534f46540000000000000000000000000000000000000000000000600082015250565b7f45524332303a207472616e736665722066726f6d20746865207a65726f20616460008201527f6472657373000000000000000000000000000000000000000000000000000000602082015250565b7f45524332303a20617070726f76652066726f6d20746865207a65726f2061646460008201527f7265737300000000000000000000000000000000000000000000000000000000602082015250565b7f4150504c45000000000000000000000000000000000000000000000000000000600082015250565b7f45524332303a2064656372656173656420616c6c6f77616e63652062656c6f7760008201527f207a65726f000000000000000000000000000000000000000000000000000000602082015250565b611a238161162b565b8114611a2e57600080fd5b50565b611a3a81611649565b8114611a4557600080fd5b50565b611a5181611673565b8114611a5c57600080fd5b50565b611a688161168a565b8114611a7357600080fd5b5056fea264697066735822122087ab3ded3f698ec6a6378e6993906699096c493a9de68af1863b8fc529842c7264736f6c63430008070033a2646970667358221220f246eb88fe0acd607db6c26c21dc730b0187cde9bdd94db78f7391b57718519464736f6c63430008070033",
  "devdoc": {
    "kind": "dev",
    "methods": {},
    "version": 1
  },
  "userdoc": {
    "kind": "user",
    "methods": {},
    "version": 1
  },
  "storageLayout": {
    "storage": [
      {
        "astId": 985,
        "contract": "contracts/EquityTokenManager.sol:EquityTokenManager",
        "label": "personTokenMapping",
        "offset": 0,
        "slot": "0",
        "type": "t_mapping(t_address,t_contract(EquityToken)977)"
      },
      {
        "astId": 989,
        "contract": "contracts/EquityTokenManager.sol:EquityTokenManager",
        "label": "s_applePriceFeed",
        "offset": 0,
        "slot": "1",
        "type": "t_address"
      },
      {
        "astId": 991,
        "contract": "contracts/EquityTokenManager.sol:EquityTokenManager",
        "label": "s_googlePriceFeed",
        "offset": 0,
        "slot": "2",
        "type": "t_address"
      },
      {
        "astId": 993,
        "contract": "contracts/EquityTokenManager.sol:EquityTokenManager",
        "label": "s_microsoftPriceFeed",
        "offset": 0,
        "slot": "3",
        "type": "t_address"
      },
      {
        "astId": 995,
        "contract": "contracts/EquityTokenManager.sol:EquityTokenManager",
        "label": "number",
        "offset": 0,
        "slot": "4",
        "type": "t_uint256"
      }
    ],
    "types": {
      "t_address": {
        "encoding": "inplace",
        "label": "address",
        "numberOfBytes": "20"
      },
      "t_contract(EquityToken)977": {
        "encoding": "inplace",
        "label": "contract EquityToken",
        "numberOfBytes": "20"
      },
      "t_mapping(t_address,t_contract(EquityToken)977)": {
        "encoding": "mapping",
        "key": "t_address",
        "label": "mapping(address => contract EquityToken)",
        "numberOfBytes": "32",
        "value": "t_contract(EquityToken)977"
      },
      "t_uint256": {
        "encoding": "inplace",
        "label": "uint256",
        "numberOfBytes": "32"
      }
    }
  }
}