{
  "address": "0xDc64a140Aa3E981100a9becA4E685f962f0cF6C9",
  "abi": [
    {
      "inputs": [
        {
          "internalType": "address",
          "name": "token",
          "type": "address"
        }
      ],
      "name": "createVault",
      "outputs": [],
      "stateMutability": "nonpayable",
      "type": "function"
    },
    {
      "inputs": [
        {
          "internalType": "address",
          "name": "borrowerVault",
          "type": "address"
        }
      ],
      "name": "drawDai",
      "outputs": [],
      "stateMutability": "nonpayable",
      "type": "function"
    },
    {
      "inputs": [
        {
          "internalType": "address",
          "name": "borrowerVault",
          "type": "address"
        }
      ],
      "name": "getBorrowerAddress",
      "outputs": [
        {
          "internalType": "address",
          "name": "",
          "type": "address"
        }
      ],
      "stateMutability": "view",
      "type": "function"
    },
    {
      "inputs": [
        {
          "internalType": "address",
          "name": "borrowerVault",
          "type": "address"
        },
        {
          "internalType": "address",
          "name": "account",
          "type": "address"
        }
      ],
      "name": "getDaiBalance",
      "outputs": [
        {
          "internalType": "uint256",
          "name": "",
          "type": "uint256"
        }
      ],
      "stateMutability": "view",
      "type": "function"
    },
    {
      "inputs": [
        {
          "internalType": "address",
          "name": "borrowerVault",
          "type": "address"
        }
      ],
      "name": "getOwner",
      "outputs": [
        {
          "internalType": "address",
          "name": "",
          "type": "address"
        }
      ],
      "stateMutability": "view",
      "type": "function"
    },
    {
      "inputs": [
        {
          "internalType": "address",
          "name": "borrowerVault",
          "type": "address"
        }
      ],
      "name": "getValuation",
      "outputs": [
        {
          "internalType": "uint256",
          "name": "",
          "type": "uint256"
        }
      ],
      "stateMutability": "view",
      "type": "function"
    },
    {
      "inputs": [
        {
          "internalType": "address",
          "name": "borrowerVault",
          "type": "address"
        }
      ],
      "name": "getVault",
      "outputs": [
        {
          "internalType": "address",
          "name": "",
          "type": "address"
        }
      ],
      "stateMutability": "view",
      "type": "function"
    },
    {
      "inputs": [
        {
          "internalType": "address",
          "name": "borrowerVault",
          "type": "address"
        }
      ],
      "name": "liquidate",
      "outputs": [],
      "stateMutability": "payable",
      "type": "function"
    },
    {
      "inputs": [
        {
          "internalType": "address",
          "name": "",
          "type": "address"
        }
      ],
      "name": "vaultTokenMapping",
      "outputs": [
        {
          "internalType": "contract Vault",
          "name": "",
          "type": "address"
        }
      ],
      "stateMutability": "view",
      "type": "function"
    }
  ],
  "transactionHash": "0xfcb123c44f32310d27fb8fb7e6e421ad88caaaae99d5915b58f160de7410b652",
  "args": [],
  "numDeployments": 1,
  "solcInputHash": "7156ed45047e2a0460dc81d4a0e4a3ca",
  "bytecode": "0x608060405234801561001057600080fd5b50613d7d806100206000396000f3fe608060405260043610620000925760003560e01c80632f86556811620000615780632f86556814620001915780634c865d7114620001b1578063b4bd6f4614620001f5578063f8453c331462000223578063fa54416114620002675762000092565b80630aace65214620000975780630d1f4ce414620000db5780630eb9af3814620001095780631675e458146200014d575b600080fd5b348015620000a457600080fd5b50620000c36004803603810190620000bd919062000c1c565b620002ab565b604051620000d2919062000e19565b60405180910390f35b348015620000e857600080fd5b5062000107600480360381019062000101919062000c1c565b62000394565b005b3480156200011657600080fd5b506200013560048036038101906200012f919062000c1c565b62000457565b60405162000144919062000d7e565b60405180910390f35b3480156200015a57600080fd5b5062000179600480360381019062000173919062000c80565b620004bf565b60405162000188919062000e19565b60405180910390f35b620001af6004803603810190620001a9919062000c1c565b620005f6565b005b348015620001be57600080fd5b50620001dd6004803603810190620001d7919062000c1c565b620006b9565b604051620001ec919062000dd8565b60405180910390f35b3480156200020257600080fd5b506200022160048036038101906200021b919062000c1c565b620006ec565b005b3480156200023057600080fd5b506200024f600480360381019062000249919062000c1c565b62000931565b6040516200025e919062000d7e565b60405180910390f35b3480156200027457600080fd5b506200029360048036038101906200028d919062000c1c565b62000a1a565b604051620002a2919062000d7e565b60405180910390f35b60008060008373ffffffffffffffffffffffffffffffffffffffff1673ffffffffffffffffffffffffffffffffffffffff16815260200190815260200160002060009054906101000a900473ffffffffffffffffffffffffffffffffffffffff1673ffffffffffffffffffffffffffffffffffffffff1663efe4227a6040518163ffffffff1660e01b815260040160206040518083038186803b1580156200035257600080fd5b505afa15801562000367573d6000803e3d6000fd5b505050506040513d601f19601f820116820180604052508101906200038d919062000cc7565b9050919050565b6000808273ffffffffffffffffffffffffffffffffffffffff1673ffffffffffffffffffffffffffffffffffffffff16815260200190815260200160002060009054906101000a900473ffffffffffffffffffffffffffffffffffffffff1673ffffffffffffffffffffffffffffffffffffffff16633ccaca7b6040518163ffffffff1660e01b8152600401600060405180830381600087803b1580156200043b57600080fd5b505af115801562000450573d6000803e3d6000fd5b5050505050565b60008060008373ffffffffffffffffffffffffffffffffffffffff1673ffffffffffffffffffffffffffffffffffffffff16815260200190815260200160002060009054906101000a900473ffffffffffffffffffffffffffffffffffffffff169050919050565b6000620005016040518060400160405280600381526020017f444149000000000000000000000000000000000000000000000000000000000081525062000b03565b6000808473ffffffffffffffffffffffffffffffffffffffff1673ffffffffffffffffffffffffffffffffffffffff16815260200190815260200160002060009054906101000a900473ffffffffffffffffffffffffffffffffffffffff1673ffffffffffffffffffffffffffffffffffffffff16637e4287be836040518263ffffffff1660e01b81526004016200059a919062000d7e565b60206040518083038186803b158015620005b357600080fd5b505afa158015620005c8573d6000803e3d6000fd5b505050506040513d601f19601f82011682018060405250810190620005ee919062000cc7565b905092915050565b6000808273ffffffffffffffffffffffffffffffffffffffff1673ffffffffffffffffffffffffffffffffffffffff16815260200190815260200160002060009054906101000a900473ffffffffffffffffffffffffffffffffffffffff1673ffffffffffffffffffffffffffffffffffffffff166328a070256040518163ffffffff1660e01b8152600401600060405180830381600087803b1580156200069d57600080fd5b505af1158015620006b2573d6000803e3d6000fd5b5050505050565b60006020528060005260406000206000915054906101000a900473ffffffffffffffffffffffffffffffffffffffff1681565b6000818273ffffffffffffffffffffffffffffffffffffffff1663efe4227a6040518163ffffffff1660e01b815260040160206040518083038186803b1580156200073657600080fd5b505afa1580156200074b573d6000803e3d6000fd5b505050506040513d601f19601f8201168201806040525081019062000771919062000cc7565b8373ffffffffffffffffffffffffffffffffffffffff1663c291ea446040518163ffffffff1660e01b815260040160206040518083038186803b158015620007b857600080fd5b505afa158015620007cd573d6000803e3d6000fd5b505050506040513d601f19601f82011682018060405250810190620007f3919062000c4e565b604051620008019062000bc9565b6200080f9392919062000d9b565b604051809103906000f0801580156200082c573d6000803e3d6000fd5b509050806000808473ffffffffffffffffffffffffffffffffffffffff1663c291ea446040518163ffffffff1660e01b815260040160206040518083038186803b1580156200087a57600080fd5b505afa1580156200088f573d6000803e3d6000fd5b505050506040513d601f19601f82011682018060405250810190620008b5919062000c4e565b73ffffffffffffffffffffffffffffffffffffffff1673ffffffffffffffffffffffffffffffffffffffff16815260200190815260200160002060006101000a81548173ffffffffffffffffffffffffffffffffffffffff021916908373ffffffffffffffffffffffffffffffffffffffff1602179055505050565b60008060008373ffffffffffffffffffffffffffffffffffffffff1673ffffffffffffffffffffffffffffffffffffffff16815260200190815260200160002060009054906101000a900473ffffffffffffffffffffffffffffffffffffffff1673ffffffffffffffffffffffffffffffffffffffff1663c291ea446040518163ffffffff1660e01b815260040160206040518083038186803b158015620009d857600080fd5b505afa158015620009ed573d6000803e3d6000fd5b505050506040513d601f19601f8201168201806040525081019062000a13919062000c4e565b9050919050565b60008060008373ffffffffffffffffffffffffffffffffffffffff1673ffffffffffffffffffffffffffffffffffffffff16815260200190815260200160002060009054906101000a900473ffffffffffffffffffffffffffffffffffffffff1673ffffffffffffffffffffffffffffffffffffffff1663893d20e86040518163ffffffff1660e01b815260040160206040518083038186803b15801562000ac157600080fd5b505afa15801562000ad6573d6000803e3d6000fd5b505050506040513d601f19601f8201168201806040525081019062000afc919062000c4e565b9050919050565b62000b9d8160405160240162000b1a919062000df5565b6040516020818303038152906040527f41304fac000000000000000000000000000000000000000000000000000000007bffffffffffffffffffffffffffffffffffffffffffffffffffffffff19166020820180517bffffffffffffffffffffffffffffffffffffffffffffffffffffffff838183161783525050505062000ba0565b50565b60008151905060006a636f6e736f6c652e6c6f679050602083016000808483855afa5050505050565b612de78062000f6183390190565b60008135905062000be88162000f2c565b92915050565b60008151905062000bff8162000f2c565b92915050565b60008151905062000c168162000f46565b92915050565b60006020828403121562000c355762000c3462000f16565b5b600062000c458482850162000bd7565b91505092915050565b60006020828403121562000c675762000c6662000f16565b5b600062000c778482850162000bee565b91505092915050565b6000806040838503121562000c9a5762000c9962000f16565b5b600062000caa8582860162000bd7565b925050602062000cbd8582860162000bd7565b9150509250929050565b60006020828403121562000ce05762000cdf62000f16565b5b600062000cf08482850162000c05565b91505092915050565b62000d048162000e66565b82525050565b62000d158162000e52565b82525050565b62000d268162000ea4565b82525050565b600062000d398262000e36565b62000d45818562000e41565b935062000d5781856020860162000ee0565b62000d628162000f1b565b840191505092915050565b62000d788162000e9a565b82525050565b600060208201905062000d95600083018462000d0a565b92915050565b600060608201905062000db2600083018662000d0a565b62000dc1602083018562000d6d565b62000dd0604083018462000cf9565b949350505050565b600060208201905062000def600083018462000d1b565b92915050565b6000602082019050818103600083015262000e11818462000d2c565b905092915050565b600060208201905062000e30600083018462000d6d565b92915050565b600081519050919050565b600082825260208201905092915050565b600062000e5f8262000e7a565b9050919050565b600062000e738262000e7a565b9050919050565b600073ffffffffffffffffffffffffffffffffffffffff82169050919050565b6000819050919050565b600062000eb18262000eb8565b9050919050565b600062000ec58262000ecc565b9050919050565b600062000ed98262000e7a565b9050919050565b60005b8381101562000f0057808201518184015260208101905062000ee3565b8381111562000f10576000848401525b50505050565b600080fd5b6000601f19601f8301169050919050565b62000f378162000e52565b811462000f4357600080fd5b50565b62000f518162000e9a565b811462000f5d57600080fd5b5056fe60a06040523480156200001157600080fd5b5060405162002de738038062002de783398181016040528101906200003791906200023a565b82600160006101000a81548173ffffffffffffffffffffffffffffffffffffffff021916908373ffffffffffffffffffffffffffffffffffffffff160217905550600160009054906101000a900473ffffffffffffffffffffffffffffffffffffffff1673ffffffffffffffffffffffffffffffffffffffff1663095ea7b3733c44cdddb6a900fa2b585dd299e03d12fa4293bc60016040518363ffffffff1660e01b8152600401620000ec929190620002ea565b602060405180830381600087803b1580156200010757600080fd5b505af11580156200011c573d6000803e3d6000fd5b505050506040513d601f19601f8201168201806040525081019062000142919062000296565b50733c44cdddb6a900fa2b585dd299e03d12fa4293bc6000806101000a81548173ffffffffffffffffffffffffffffffffffffffff021916908373ffffffffffffffffffffffffffffffffffffffff160217905550816002819055508073ffffffffffffffffffffffffffffffffffffffff1660808173ffffffffffffffffffffffffffffffffffffffff1660601b8152505050505062000432565b600081519050620001ef81620003ca565b92915050565b6000815190506200020681620003e4565b92915050565b6000815190506200021d81620003fe565b92915050565b600081519050620002348162000418565b92915050565b600080600060608486031215620002565762000255620003c5565b5b60006200026686828701620001de565b9350506020620002798682870162000223565b92505060406200028c86828701620001f5565b9150509250925092565b600060208284031215620002af57620002ae620003c5565b5b6000620002bf848285016200020c565b91505092915050565b620002d38162000375565b82525050565b620002e48162000389565b82525050565b6000604082019050620003016000830185620002c8565b620003106020830184620002d9565b9392505050565b600062000324826200034b565b9050919050565b600062000338826200034b565b9050919050565b60008115159050919050565b600073ffffffffffffffffffffffffffffffffffffffff82169050919050565b6000819050919050565b600062000382826200039d565b9050919050565b600062000396826200036b565b9050919050565b6000620003aa82620003b1565b9050919050565b6000620003be826200034b565b9050919050565b600080fd5b620003d58162000317565b8114620003e157600080fd5b50565b620003ef816200032b565b8114620003fb57600080fd5b50565b62000409816200033f565b81146200041557600080fd5b50565b62000423816200036b565b81146200042f57600080fd5b50565b60805160601c612973620004746000396000818161018d015281816102640152818161033e015281816103fe015281816104ec015261067b01526129736000f3fe6080604052600436106200005c5760003560e01c806328a0702514620000615780633ccaca7b146200006d5780637e4287be1462000079578063893d20e814620000bd578063c291ea4414620000ed578063efe4227a146200011d575b600080fd5b6200006b6200014d565b005b62000077620002fe565b005b3480156200008657600080fd5b50620000a560048036038101906200009f9190620006fc565b62000594565b604051620000b491906200089a565b60405180910390f35b348015620000ca57600080fd5b50620000d56200064e565b604051620000e49190620007d6565b60405180910390f35b348015620000fa57600080fd5b506200010562000677565b604051620001149190620007d6565b60405180910390f35b3480156200012a57600080fd5b50620001356200069f565b6040516200014491906200089a565b60405180910390f35b600360009054906101000a900473ffffffffffffffffffffffffffffffffffffffff1673ffffffffffffffffffffffffffffffffffffffff16639dc29fac7f000000000000000000000000000000000000000000000000000000000000000060028054620001bc9190620008f4565b6040518363ffffffff1660e01b8152600401620001db9291906200086d565b600060405180830381600087803b158015620001f657600080fd5b505af11580156200020b573d6000803e3d6000fd5b50505050600160009054906101000a900473ffffffffffffffffffffffffffffffffffffffff1673ffffffffffffffffffffffffffffffffffffffff166323b872dd733c44cdddb6a900fa2b585dd299e03d12fa4293bc7f000000000000000000000000000000000000000000000000000000000000000060016040518463ffffffff1660e01b8152600401620002a593929190620007f3565b602060405180830381600087803b158015620002c057600080fd5b505af1158015620002d5573d6000803e3d6000fd5b505050506040513d601f19601f82011682018060405250810190620002fb91906200072e565b50565b600160009054906101000a900473ffffffffffffffffffffffffffffffffffffffff1673ffffffffffffffffffffffffffffffffffffffff166323b872dd7f0000000000000000000000000000000000000000000000000000000000000000733c44cdddb6a900fa2b585dd299e03d12fa4293bc60016040518463ffffffff1660e01b81526004016200039493929190620007f3565b602060405180830381600087803b158015620003af57600080fd5b505af1158015620003c4573d6000803e3d6000fd5b505050506040513d601f19601f82011682018060405250810190620003ea91906200072e565b5060028054620003fb9190620008f4565b307f00000000000000000000000000000000000000000000000000000000000000006040516200042b90620006a9565b6200043993929190620008b7565b604051809103906000f08015801562000456573d6000803e3d6000fd5b50600360006101000a81548173ffffffffffffffffffffffffffffffffffffffff021916908373ffffffffffffffffffffffffffffffffffffffff160217905550600360009054906101000a900473ffffffffffffffffffffffffffffffffffffffff1673ffffffffffffffffffffffffffffffffffffffff166323b872dd733c44cdddb6a900fa2b585dd299e03d12fa4293bc7f0000000000000000000000000000000000000000000000000000000000000000600280546200051b9190620008f4565b6040518463ffffffff1660e01b81526004016200053b9392919062000830565b602060405180830381600087803b1580156200055657600080fd5b505af11580156200056b573d6000803e3d6000fd5b505050506040513d601f19601f820116820180604052508101906200059191906200072e565b50565b6000600360009054906101000a900473ffffffffffffffffffffffffffffffffffffffff1673ffffffffffffffffffffffffffffffffffffffff166370a08231836040518263ffffffff1660e01b8152600401620005f39190620007d6565b60206040518083038186803b1580156200060c57600080fd5b505afa15801562000621573d6000803e3d6000fd5b505050506040513d601f19601f8201168201806040525081019062000647919062000760565b9050919050565b60008060009054906101000a900473ffffffffffffffffffffffffffffffffffffffff16905090565b60007f0000000000000000000000000000000000000000000000000000000000000000905090565b6000600254905090565b611ef58062000a4983390190565b600081359050620006c881620009fa565b92915050565b600081519050620006df8162000a14565b92915050565b600081519050620006f68162000a2e565b92915050565b600060208284031215620007155762000714620009f5565b5b60006200072584828501620006b7565b91505092915050565b600060208284031215620007475762000746620009f5565b5b60006200075784828501620006ce565b91505092915050565b600060208284031215620007795762000778620009f5565b5b60006200078984828501620006e5565b91505092915050565b6200079d8162000976565b82525050565b620007ae816200092c565b82525050565b620007bf816200098a565b82525050565b620007d0816200096c565b82525050565b6000602082019050620007ed6000830184620007a3565b92915050565b60006060820190506200080a600083018662000792565b62000819602083018562000792565b620008286040830184620007b4565b949350505050565b600060608201905062000847600083018662000792565b62000856602083018562000792565b620008656040830184620007c5565b949350505050565b600060408201905062000884600083018562000792565b620008936020830184620007c5565b9392505050565b6000602082019050620008b16000830184620007c5565b92915050565b6000606082019050620008ce6000830186620007c5565b620008dd6020830185620007a3565b620008ec604083018462000792565b949350505050565b600062000901826200096c565b91506200090e836200096c565b925082620009215762000920620009c6565b5b828204905092915050565b600062000939826200094c565b9050919050565b60008115159050919050565b600073ffffffffffffffffffffffffffffffffffffffff82169050919050565b6000819050919050565b600062000983826200099e565b9050919050565b600062000997826200096c565b9050919050565b6000620009ab82620009b2565b9050919050565b6000620009bf826200094c565b9050919050565b7f4e487b7100000000000000000000000000000000000000000000000000000000600052601260045260246000fd5b600080fd5b62000a05816200092c565b811462000a1157600080fd5b50565b62000a1f8162000940565b811462000a2b57600080fd5b50565b62000a39816200096c565b811462000a4557600080fd5b5056fe60806040523480156200001157600080fd5b5060405162001ef538038062001ef5833981810160405281019062000037919062000574565b6040518060400160405280600981526020017f44414920546f6b656e00000000000000000000000000000000000000000000008152506040518060400160405280600381526020017f44414900000000000000000000000000000000000000000000000000000000008152508160039080519060200190620000bb92919062000496565b508060049080519060200190620000d492919062000496565b505050620000fd733c44cdddb6a900fa2b585dd299e03d12fa4293bc846200014060201b60201c565b62000124733c44cdddb6a900fa2b585dd299e03d12fa4293bc8385620002b960201b60201c565b62000137818385620002b960201b60201c565b50505062000919565b600073ffffffffffffffffffffffffffffffffffffffff168273ffffffffffffffffffffffffffffffffffffffff161415620001b3576040517f08c379a0000000000000000000000000000000000000000000000000000000008152600401620001aa906200069a565b60405180910390fd5b620001c7600083836200048c60201b60201c565b8060026000828254620001db9190620006ea565b92505081905550806000808473ffffffffffffffffffffffffffffffffffffffff1673ffffffffffffffffffffffffffffffffffffffff1681526020019081526020016000206000828254620002329190620006ea565b925050819055508173ffffffffffffffffffffffffffffffffffffffff16600073ffffffffffffffffffffffffffffffffffffffff167fddf252ad1be2c89b69c2b068fc378daa952ba7f163c4a11628f55a4df523b3ef83604051620002999190620006bc565b60405180910390a3620002b5600083836200049160201b60201c565b5050565b600073ffffffffffffffffffffffffffffffffffffffff168373ffffffffffffffffffffffffffffffffffffffff1614156200032c576040517f08c379a0000000000000000000000000000000000000000000000000000000008152600401620003239062000678565b60405180910390fd5b600073ffffffffffffffffffffffffffffffffffffffff168273ffffffffffffffffffffffffffffffffffffffff1614156200039f576040517f08c379a0000000000000000000000000000000000000000000000000000000008152600401620003969062000656565b60405180910390fd5b80600160008573ffffffffffffffffffffffffffffffffffffffff1673ffffffffffffffffffffffffffffffffffffffff16815260200190815260200160002060008473ffffffffffffffffffffffffffffffffffffffff1673ffffffffffffffffffffffffffffffffffffffff168152602001908152602001600020819055508173ffffffffffffffffffffffffffffffffffffffff168373ffffffffffffffffffffffffffffffffffffffff167f8c5be1e5ebec7d5bd14f71427d1e84f3dd0314c0f7b2291e5b200ac8c7c3b925836040516200047f9190620006bc565b60405180910390a3505050565b505050565b505050565b828054620004a49062000785565b90600052602060002090601f016020900481019282620004c8576000855562000514565b82601f10620004e357805160ff191683800117855562000514565b8280016001018555821562000514579182015b8281111562000513578251825591602001919060010190620004f6565b5b50905062000523919062000527565b5090565b5b808211156200054257600081600090555060010162000528565b5090565b6000815190506200055781620008e5565b92915050565b6000815190506200056e81620008ff565b92915050565b60008060006060848603121562000590576200058f62000819565b5b6000620005a0868287016200055d565b9350506020620005b38682870162000546565b9250506040620005c68682870162000546565b9150509250925092565b6000620005df602283620006d9565b9150620005ec826200081e565b604082019050919050565b600062000606602483620006d9565b915062000613826200086d565b604082019050919050565b60006200062d601f83620006d9565b91506200063a82620008bc565b602082019050919050565b62000650816200077b565b82525050565b600060208201905081810360008301526200067181620005d0565b9050919050565b600060208201905081810360008301526200069381620005f7565b9050919050565b60006020820190508181036000830152620006b5816200061e565b9050919050565b6000602082019050620006d3600083018462000645565b92915050565b600082825260208201905092915050565b6000620006f7826200077b565b915062000704836200077b565b9250827fffffffffffffffffffffffffffffffffffffffffffffffffffffffffffffffff038211156200073c576200073b620007bb565b5b828201905092915050565b600062000754826200075b565b9050919050565b600073ffffffffffffffffffffffffffffffffffffffff82169050919050565b6000819050919050565b600060028204905060018216806200079e57607f821691505b60208210811415620007b557620007b4620007ea565b5b50919050565b7f4e487b7100000000000000000000000000000000000000000000000000000000600052601160045260246000fd5b7f4e487b7100000000000000000000000000000000000000000000000000000000600052602260045260246000fd5b600080fd5b7f45524332303a20617070726f766520746f20746865207a65726f20616464726560008201527f7373000000000000000000000000000000000000000000000000000000000000602082015250565b7f45524332303a20617070726f76652066726f6d20746865207a65726f2061646460008201527f7265737300000000000000000000000000000000000000000000000000000000602082015250565b7f45524332303a206d696e7420746f20746865207a65726f206164647265737300600082015250565b620008f08162000747565b8114620008fc57600080fd5b50565b6200090a816200077b565b81146200091657600080fd5b50565b6115cc80620009296000396000f3fe608060405234801561001057600080fd5b50600436106100b45760003560e01c806370a082311161007157806370a08231146101a357806395d89b41146101d35780639dc29fac146101f1578063a457c2d71461020d578063a9059cbb1461023d578063dd62ed3e1461026d576100b4565b806306fdde03146100b9578063095ea7b3146100d757806318160ddd1461010757806323b872dd14610125578063313ce567146101555780633950935114610173575b600080fd5b6100c161029d565b6040516100ce9190610f7b565b60405180910390f35b6100f160048036038101906100ec9190610d7f565b61032f565b6040516100fe9190610f60565b60405180910390f35b61010f610352565b60405161011c91906110bd565b60405180910390f35b61013f600480360381019061013a9190610d2c565b61035c565b60405161014c9190610f60565b60405180910390f35b61015d61038b565b60405161016a91906110d8565b60405180910390f35b61018d60048036038101906101889190610d7f565b610394565b60405161019a9190610f60565b60405180910390f35b6101bd60048036038101906101b89190610cbf565b6103cb565b6040516101ca91906110bd565b60405180910390f35b6101db610413565b6040516101e89190610f7b565b60405180910390f35b61020b60048036038101906102069190610d7f565b6104a5565b005b61022760048036038101906102229190610d7f565b6104b3565b6040516102349190610f60565b60405180910390f35b61025760048036038101906102529190610d7f565b61052a565b6040516102649190610f60565b60405180910390f35b61028760048036038101906102829190610cec565b61054d565b60405161029491906110bd565b60405180910390f35b6060600380546102ac90611221565b80601f01602080910402602001604051908101604052809291908181526020018280546102d890611221565b80156103255780601f106102fa57610100808354040283529160200191610325565b820191906000526020600020905b81548152906001019060200180831161030857829003601f168201915b5050505050905090565b60008061033a6105d4565b90506103478185856105dc565b600191505092915050565b6000600254905090565b6000806103676105d4565b90506103748582856107a7565b61037f858585610833565b60019150509392505050565b60006012905090565b60008061039f6105d4565b90506103c08185856103b1858961054d565b6103bb919061110f565b6105dc565b600191505092915050565b60008060008373ffffffffffffffffffffffffffffffffffffffff1673ffffffffffffffffffffffffffffffffffffffff168152602001908152602001600020549050919050565b60606004805461042290611221565b80601f016020809104026020016040519081016040528092919081815260200182805461044e90611221565b801561049b5780601f106104705761010080835404028352916020019161049b565b820191906000526020600020905b81548152906001019060200180831161047e57829003601f168201915b5050505050905090565b6104af8282610ab4565b5050565b6000806104be6105d4565b905060006104cc828661054d565b905083811015610511576040517f08c379a00000000000000000000000000000000000000000000000000000000081526004016105089061109d565b60405180910390fd5b61051e82868684036105dc565b60019250505092915050565b6000806105356105d4565b9050610542818585610833565b600191505092915050565b6000600160008473ffffffffffffffffffffffffffffffffffffffff1673ffffffffffffffffffffffffffffffffffffffff16815260200190815260200160002060008373ffffffffffffffffffffffffffffffffffffffff1673ffffffffffffffffffffffffffffffffffffffff16815260200190815260200160002054905092915050565b600033905090565b600073ffffffffffffffffffffffffffffffffffffffff168373ffffffffffffffffffffffffffffffffffffffff16141561064c576040517f08c379a00000000000000000000000000000000000000000000000000000000081526004016106439061107d565b60405180910390fd5b600073ffffffffffffffffffffffffffffffffffffffff168273ffffffffffffffffffffffffffffffffffffffff1614156106bc576040517f08c379a00000000000000000000000000000000000000000000000000000000081526004016106b390610fdd565b60405180910390fd5b80600160008573ffffffffffffffffffffffffffffffffffffffff1673ffffffffffffffffffffffffffffffffffffffff16815260200190815260200160002060008473ffffffffffffffffffffffffffffffffffffffff1673ffffffffffffffffffffffffffffffffffffffff168152602001908152602001600020819055508173ffffffffffffffffffffffffffffffffffffffff168373ffffffffffffffffffffffffffffffffffffffff167f8c5be1e5ebec7d5bd14f71427d1e84f3dd0314c0f7b2291e5b200ac8c7c3b9258360405161079a91906110bd565b60405180910390a3505050565b60006107b3848461054d565b90507fffffffffffffffffffffffffffffffffffffffffffffffffffffffffffffffff811461082d578181101561081f576040517f08c379a000000000000000000000000000000000000000000000000000000000815260040161081690610ffd565b60405180910390fd5b61082c84848484036105dc565b5b50505050565b600073ffffffffffffffffffffffffffffffffffffffff168373ffffffffffffffffffffffffffffffffffffffff1614156108a3576040517f08c379a000000000000000000000000000000000000000000000000000000000815260040161089a9061105d565b60405180910390fd5b600073ffffffffffffffffffffffffffffffffffffffff168273ffffffffffffffffffffffffffffffffffffffff161415610913576040517f08c379a000000000000000000000000000000000000000000000000000000000815260040161090a90610f9d565b60405180910390fd5b61091e838383610c8b565b60008060008573ffffffffffffffffffffffffffffffffffffffff1673ffffffffffffffffffffffffffffffffffffffff168152602001908152602001600020549050818110156109a4576040517f08c379a000000000000000000000000000000000000000000000000000000000815260040161099b9061101d565b60405180910390fd5b8181036000808673ffffffffffffffffffffffffffffffffffffffff1673ffffffffffffffffffffffffffffffffffffffff16815260200190815260200160002081905550816000808573ffffffffffffffffffffffffffffffffffffffff1673ffffffffffffffffffffffffffffffffffffffff1681526020019081526020016000206000828254610a37919061110f565b925050819055508273ffffffffffffffffffffffffffffffffffffffff168473ffffffffffffffffffffffffffffffffffffffff167fddf252ad1be2c89b69c2b068fc378daa952ba7f163c4a11628f55a4df523b3ef84604051610a9b91906110bd565b60405180910390a3610aae848484610c90565b50505050565b600073ffffffffffffffffffffffffffffffffffffffff168273ffffffffffffffffffffffffffffffffffffffff161415610b24576040517f08c379a0000000000000000000000000000000000000000000000000000000008152600401610b1b9061103d565b60405180910390fd5b610b3082600083610c8b565b60008060008473ffffffffffffffffffffffffffffffffffffffff1673ffffffffffffffffffffffffffffffffffffffff16815260200190815260200160002054905081811015610bb6576040517f08c379a0000000000000000000000000000000000000000000000000000000008152600401610bad90610fbd565b60405180910390fd5b8181036000808573ffffffffffffffffffffffffffffffffffffffff1673ffffffffffffffffffffffffffffffffffffffff168152602001908152602001600020819055508160026000828254610c0d9190611165565b92505081905550600073ffffffffffffffffffffffffffffffffffffffff168373ffffffffffffffffffffffffffffffffffffffff167fddf252ad1be2c89b69c2b068fc378daa952ba7f163c4a11628f55a4df523b3ef84604051610c7291906110bd565b60405180910390a3610c8683600084610c90565b505050565b505050565b505050565b600081359050610ca481611568565b92915050565b600081359050610cb98161157f565b92915050565b600060208284031215610cd557610cd46112b1565b5b6000610ce384828501610c95565b91505092915050565b60008060408385031215610d0357610d026112b1565b5b6000610d1185828601610c95565b9250506020610d2285828601610c95565b9150509250929050565b600080600060608486031215610d4557610d446112b1565b5b6000610d5386828701610c95565b9350506020610d6486828701610c95565b9250506040610d7586828701610caa565b9150509250925092565b60008060408385031215610d9657610d956112b1565b5b6000610da485828601610c95565b9250506020610db585828601610caa565b9150509250929050565b610dc8816111ab565b82525050565b6000610dd9826110f3565b610de381856110fe565b9350610df38185602086016111ee565b610dfc816112b6565b840191505092915050565b6000610e146023836110fe565b9150610e1f826112c7565b604082019050919050565b6000610e376022836110fe565b9150610e4282611316565b604082019050919050565b6000610e5a6022836110fe565b9150610e6582611365565b604082019050919050565b6000610e7d601d836110fe565b9150610e88826113b4565b602082019050919050565b6000610ea06026836110fe565b9150610eab826113dd565b604082019050919050565b6000610ec36021836110fe565b9150610ece8261142c565b604082019050919050565b6000610ee66025836110fe565b9150610ef18261147b565b604082019050919050565b6000610f096024836110fe565b9150610f14826114ca565b604082019050919050565b6000610f2c6025836110fe565b9150610f3782611519565b604082019050919050565b610f4b816111d7565b82525050565b610f5a816111e1565b82525050565b6000602082019050610f756000830184610dbf565b92915050565b60006020820190508181036000830152610f958184610dce565b905092915050565b60006020820190508181036000830152610fb681610e07565b9050919050565b60006020820190508181036000830152610fd681610e2a565b9050919050565b60006020820190508181036000830152610ff681610e4d565b9050919050565b6000602082019050818103600083015261101681610e70565b9050919050565b6000602082019050818103600083015261103681610e93565b9050919050565b6000602082019050818103600083015261105681610eb6565b9050919050565b6000602082019050818103600083015261107681610ed9565b9050919050565b6000602082019050818103600083015261109681610efc565b9050919050565b600060208201905081810360008301526110b681610f1f565b9050919050565b60006020820190506110d26000830184610f42565b92915050565b60006020820190506110ed6000830184610f51565b92915050565b600081519050919050565b600082825260208201905092915050565b600061111a826111d7565b9150611125836111d7565b9250827fffffffffffffffffffffffffffffffffffffffffffffffffffffffffffffffff0382111561115a57611159611253565b5b828201905092915050565b6000611170826111d7565b915061117b836111d7565b92508282101561118e5761118d611253565b5b828203905092915050565b60006111a4826111b7565b9050919050565b60008115159050919050565b600073ffffffffffffffffffffffffffffffffffffffff82169050919050565b6000819050919050565b600060ff82169050919050565b60005b8381101561120c5780820151818401526020810190506111f1565b8381111561121b576000848401525b50505050565b6000600282049050600182168061123957607f821691505b6020821081141561124d5761124c611282565b5b50919050565b7f4e487b7100000000000000000000000000000000000000000000000000000000600052601160045260246000fd5b7f4e487b7100000000000000000000000000000000000000000000000000000000600052602260045260246000fd5b600080fd5b6000601f19601f8301169050919050565b7f45524332303a207472616e7366657220746f20746865207a65726f206164647260008201527f6573730000000000000000000000000000000000000000000000000000000000602082015250565b7f45524332303a206275726e20616d6f756e7420657863656564732062616c616e60008201527f6365000000000000000000000000000000000000000000000000000000000000602082015250565b7f45524332303a20617070726f766520746f20746865207a65726f20616464726560008201527f7373000000000000000000000000000000000000000000000000000000000000602082015250565b7f45524332303a20696e73756666696369656e7420616c6c6f77616e6365000000600082015250565b7f45524332303a207472616e7366657220616d6f756e742065786365656473206260008201527f616c616e63650000000000000000000000000000000000000000000000000000602082015250565b7f45524332303a206275726e2066726f6d20746865207a65726f2061646472657360008201527f7300000000000000000000000000000000000000000000000000000000000000602082015250565b7f45524332303a207472616e736665722066726f6d20746865207a65726f20616460008201527f6472657373000000000000000000000000000000000000000000000000000000602082015250565b7f45524332303a20617070726f76652066726f6d20746865207a65726f2061646460008201527f7265737300000000000000000000000000000000000000000000000000000000602082015250565b7f45524332303a2064656372656173656420616c6c6f77616e63652062656c6f7760008201527f207a65726f000000000000000000000000000000000000000000000000000000602082015250565b61157181611199565b811461157c57600080fd5b50565b611588816111d7565b811461159357600080fd5b5056fea2646970667358221220e0b3b64346574941d0f450e9eb78fc58fc9f1b167a8d022be3ee95720377880c64736f6c63430008070033a2646970667358221220dcff20aafee36f55d66c144208d547b4e3c8219304467dd40e33d0371658521364736f6c63430008070033a2646970667358221220963043f4568e2a418d9ae03cb21cd64600e5adf6330d4139189665859885049f64736f6c63430008070033",
  "devdoc": {
    "kind": "dev",
    "methods": {},
    "version": 1
  },
  "userdoc": {
    "kind": "user",
    "methods": {},
    "version": 1
  },
  "storageLayout": {
    "storage": [
      {
        "astId": 1198,
        "contract": "contracts/VaultManager.sol:VaultManager",
        "label": "vaultTokenMapping",
        "offset": 0,
        "slot": "0",
        "type": "t_mapping(t_address,t_contract(Vault)1188)"
      }
    ],
    "types": {
      "t_address": {
        "encoding": "inplace",
        "label": "address",
        "numberOfBytes": "20"
      },
      "t_contract(Vault)1188": {
        "encoding": "inplace",
        "label": "contract Vault",
        "numberOfBytes": "20"
      },
      "t_mapping(t_address,t_contract(Vault)1188)": {
        "encoding": "mapping",
        "key": "t_address",
        "label": "mapping(address => contract Vault)",
        "numberOfBytes": "32",
        "value": "t_contract(Vault)1188"
      }
    }
  }
}