{
  "address": "0xDc64a140Aa3E981100a9becA4E685f962f0cF6C9",
  "abi": [
    {
      "inputs": [],
      "stateMutability": "nonpayable",
      "type": "constructor"
    },
    {
      "inputs": [
        {
          "internalType": "address",
          "name": "token",
          "type": "address"
        }
      ],
      "name": "createVault",
      "outputs": [],
      "stateMutability": "nonpayable",
      "type": "function"
    },
    {
      "inputs": [
        {
          "internalType": "address",
          "name": "borrowerVault",
          "type": "address"
        }
      ],
      "name": "drawDai",
      "outputs": [],
      "stateMutability": "nonpayable",
      "type": "function"
    },
    {
      "inputs": [
        {
          "internalType": "address",
          "name": "borrowerVault",
          "type": "address"
        }
      ],
      "name": "getBorrowerAddress",
      "outputs": [
        {
          "internalType": "address",
          "name": "",
          "type": "address"
        }
      ],
      "stateMutability": "view",
      "type": "function"
    },
    {
      "inputs": [
        {
          "internalType": "address",
          "name": "borrowerVault",
          "type": "address"
        },
        {
          "internalType": "address",
          "name": "account",
          "type": "address"
        }
      ],
      "name": "getDaiBalance",
      "outputs": [
        {
          "internalType": "uint256",
          "name": "",
          "type": "uint256"
        }
      ],
      "stateMutability": "view",
      "type": "function"
    },
    {
      "inputs": [],
      "name": "getNumber",
      "outputs": [
        {
          "internalType": "uint256",
          "name": "",
          "type": "uint256"
        }
      ],
      "stateMutability": "view",
      "type": "function"
    },
    {
      "inputs": [
        {
          "internalType": "address",
          "name": "borrowerVault",
          "type": "address"
        }
      ],
      "name": "getOwner",
      "outputs": [
        {
          "internalType": "address",
          "name": "",
          "type": "address"
        }
      ],
      "stateMutability": "view",
      "type": "function"
    },
    {
      "inputs": [
        {
          "internalType": "address",
          "name": "borrowerVault",
          "type": "address"
        }
      ],
      "name": "getValuation",
      "outputs": [
        {
          "internalType": "uint256",
          "name": "",
          "type": "uint256"
        }
      ],
      "stateMutability": "view",
      "type": "function"
    },
    {
      "inputs": [],
      "name": "number",
      "outputs": [
        {
          "internalType": "uint256",
          "name": "",
          "type": "uint256"
        }
      ],
      "stateMutability": "view",
      "type": "function"
    },
    {
      "inputs": [
        {
          "internalType": "address",
          "name": "",
          "type": "address"
        }
      ],
      "name": "vaultTokenMapping",
      "outputs": [
        {
          "internalType": "contract Vault",
          "name": "",
          "type": "address"
        }
      ],
      "stateMutability": "view",
      "type": "function"
    }
  ],
  "transactionHash": "0xb5548fbdda9d781dc51a529be3a471f8842598c21eb90cae705d02446ea6360c",
  "args": [],
  "numDeployments": 1,
  "solcInputHash": "9ea416c86b753d19b7ee366702158eb8",
  "bytecode": "0x608060405234801561001057600080fd5b5060056001819055506138e5806100286000396000f3fe60806040523480156200001157600080fd5b5060043610620000a05760003560e01c80638381f58a116200006f5780638381f58a1462000167578063b4bd6f461462000189578063f2c9ecd814620001a9578063f8453c3314620001cb578063fa544161146200020157620000a0565b80630aace65214620000a55780630d1f4ce414620000db5780631675e45814620000fb5780634c865d711462000131575b600080fd5b620000c36004803603810190620000bd919062000a8d565b62000237565b604051620000d2919062000c8a565b60405180910390f35b620000f96004803603810190620000f3919062000a8d565b62000320565b005b62000119600480360381019062000113919062000af1565b620003e3565b60405162000128919062000c8a565b60405180910390f35b6200014f600480360381019062000149919062000a8d565b620004da565b6040516200015e919062000c49565b60405180910390f35b620001716200050d565b60405162000180919062000c8a565b60405180910390f35b620001a76004803603810190620001a1919062000a8d565b62000513565b005b620001b362000758565b604051620001c2919062000c8a565b60405180910390f35b620001e96004803603810190620001e3919062000a8d565b620007a2565b604051620001f8919062000bef565b60405180910390f35b6200021f600480360381019062000219919062000a8d565b6200088b565b6040516200022e919062000bef565b60405180910390f35b60008060008373ffffffffffffffffffffffffffffffffffffffff1673ffffffffffffffffffffffffffffffffffffffff16815260200190815260200160002060009054906101000a900473ffffffffffffffffffffffffffffffffffffffff1673ffffffffffffffffffffffffffffffffffffffff1663efe4227a6040518163ffffffff1660e01b815260040160206040518083038186803b158015620002de57600080fd5b505afa158015620002f3573d6000803e3d6000fd5b505050506040513d601f19601f8201168201806040525081019062000319919062000b38565b9050919050565b6000808273ffffffffffffffffffffffffffffffffffffffff1673ffffffffffffffffffffffffffffffffffffffff16815260200190815260200160002060009054906101000a900473ffffffffffffffffffffffffffffffffffffffff1673ffffffffffffffffffffffffffffffffffffffff16633ccaca7b6040518163ffffffff1660e01b8152600401600060405180830381600087803b158015620003c757600080fd5b505af1158015620003dc573d6000803e3d6000fd5b5050505050565b60008060008473ffffffffffffffffffffffffffffffffffffffff1673ffffffffffffffffffffffffffffffffffffffff16815260200190815260200160002060009054906101000a900473ffffffffffffffffffffffffffffffffffffffff1673ffffffffffffffffffffffffffffffffffffffff16637e4287be836040518263ffffffff1660e01b81526004016200047e919062000bef565b60206040518083038186803b1580156200049757600080fd5b505afa158015620004ac573d6000803e3d6000fd5b505050506040513d601f19601f82011682018060405250810190620004d2919062000b38565b905092915050565b60006020528060005260406000206000915054906101000a900473ffffffffffffffffffffffffffffffffffffffff1681565b60015481565b6000818273ffffffffffffffffffffffffffffffffffffffff1663efe4227a6040518163ffffffff1660e01b815260040160206040518083038186803b1580156200055d57600080fd5b505afa15801562000572573d6000803e3d6000fd5b505050506040513d601f19601f8201168201806040525081019062000598919062000b38565b8373ffffffffffffffffffffffffffffffffffffffff1663c291ea446040518163ffffffff1660e01b815260040160206040518083038186803b158015620005df57600080fd5b505afa158015620005f4573d6000803e3d6000fd5b505050506040513d601f19601f820116820180604052508101906200061a919062000abf565b604051620006289062000a3a565b620006369392919062000c0c565b604051809103906000f08015801562000653573d6000803e3d6000fd5b509050806000808473ffffffffffffffffffffffffffffffffffffffff1663c291ea446040518163ffffffff1660e01b815260040160206040518083038186803b158015620006a157600080fd5b505afa158015620006b6573d6000803e3d6000fd5b505050506040513d601f19601f82011682018060405250810190620006dc919062000abf565b73ffffffffffffffffffffffffffffffffffffffff1673ffffffffffffffffffffffffffffffffffffffff16815260200190815260200160002060006101000a81548173ffffffffffffffffffffffffffffffffffffffff021916908373ffffffffffffffffffffffffffffffffffffffff1602179055505050565b60006200079a6040518060400160405280600581526020017f68656c6c6f00000000000000000000000000000000000000000000000000000081525062000974565b600154905090565b60008060008373ffffffffffffffffffffffffffffffffffffffff1673ffffffffffffffffffffffffffffffffffffffff16815260200190815260200160002060009054906101000a900473ffffffffffffffffffffffffffffffffffffffff1673ffffffffffffffffffffffffffffffffffffffff1663c291ea446040518163ffffffff1660e01b815260040160206040518083038186803b1580156200084957600080fd5b505afa1580156200085e573d6000803e3d6000fd5b505050506040513d601f19601f8201168201806040525081019062000884919062000abf565b9050919050565b60008060008373ffffffffffffffffffffffffffffffffffffffff1673ffffffffffffffffffffffffffffffffffffffff16815260200190815260200160002060009054906101000a900473ffffffffffffffffffffffffffffffffffffffff1673ffffffffffffffffffffffffffffffffffffffff1663893d20e86040518163ffffffff1660e01b815260040160206040518083038186803b1580156200093257600080fd5b505afa15801562000947573d6000803e3d6000fd5b505050506040513d601f19601f820116820180604052508101906200096d919062000abf565b9050919050565b62000a0e816040516024016200098b919062000c66565b6040516020818303038152906040527f41304fac000000000000000000000000000000000000000000000000000000007bffffffffffffffffffffffffffffffffffffffffffffffffffffffff19166020820180517bffffffffffffffffffffffffffffffffffffffffffffffffffffffff838183161783525050505062000a11565b50565b60008151905060006a636f6e736f6c652e6c6f679050602083016000808483855afa5050505050565b612ade8062000dd283390190565b60008135905062000a598162000d9d565b92915050565b60008151905062000a708162000d9d565b92915050565b60008151905062000a878162000db7565b92915050565b60006020828403121562000aa65762000aa562000d87565b5b600062000ab68482850162000a48565b91505092915050565b60006020828403121562000ad85762000ad762000d87565b5b600062000ae88482850162000a5f565b91505092915050565b6000806040838503121562000b0b5762000b0a62000d87565b5b600062000b1b8582860162000a48565b925050602062000b2e8582860162000a48565b9150509250929050565b60006020828403121562000b515762000b5062000d87565b5b600062000b618482850162000a76565b91505092915050565b62000b758162000cd7565b82525050565b62000b868162000cc3565b82525050565b62000b978162000d15565b82525050565b600062000baa8262000ca7565b62000bb6818562000cb2565b935062000bc881856020860162000d51565b62000bd38162000d8c565b840191505092915050565b62000be98162000d0b565b82525050565b600060208201905062000c06600083018462000b7b565b92915050565b600060608201905062000c23600083018662000b7b565b62000c32602083018562000bde565b62000c41604083018462000b6a565b949350505050565b600060208201905062000c60600083018462000b8c565b92915050565b6000602082019050818103600083015262000c82818462000b9d565b905092915050565b600060208201905062000ca1600083018462000bde565b92915050565b600081519050919050565b600082825260208201905092915050565b600062000cd08262000ceb565b9050919050565b600062000ce48262000ceb565b9050919050565b600073ffffffffffffffffffffffffffffffffffffffff82169050919050565b6000819050919050565b600062000d228262000d29565b9050919050565b600062000d368262000d3d565b9050919050565b600062000d4a8262000ceb565b9050919050565b60005b8381101562000d7157808201518184015260208101905062000d54565b8381111562000d81576000848401525b50505050565b600080fd5b6000601f19601f8301169050919050565b62000da88162000cc3565b811462000db457600080fd5b50565b62000dc28162000d0b565b811462000dce57600080fd5b5056fe60a06040523480156200001157600080fd5b5060405162002ade38038062002ade83398181016040528101906200003791906200023a565b82600160006101000a81548173ffffffffffffffffffffffffffffffffffffffff021916908373ffffffffffffffffffffffffffffffffffffffff160217905550600160009054906101000a900473ffffffffffffffffffffffffffffffffffffffff1673ffffffffffffffffffffffffffffffffffffffff1663095ea7b373dd870fa1b7c4700f2bd7f44238821c26f739214860016040518363ffffffff1660e01b8152600401620000ec929190620002ea565b602060405180830381600087803b1580156200010757600080fd5b505af11580156200011c573d6000803e3d6000fd5b505050506040513d601f19601f8201168201806040525081019062000142919062000296565b5073dd870fa1b7c4700f2bd7f44238821c26f73921486000806101000a81548173ffffffffffffffffffffffffffffffffffffffff021916908373ffffffffffffffffffffffffffffffffffffffff160217905550816002819055508073ffffffffffffffffffffffffffffffffffffffff1660808173ffffffffffffffffffffffffffffffffffffffff1660601b8152505050505062000432565b600081519050620001ef81620003ca565b92915050565b6000815190506200020681620003e4565b92915050565b6000815190506200021d81620003fe565b92915050565b600081519050620002348162000418565b92915050565b600080600060608486031215620002565762000255620003c5565b5b60006200026686828701620001de565b9350506020620002798682870162000223565b92505060406200028c86828701620001f5565b9150509250925092565b600060208284031215620002af57620002ae620003c5565b5b6000620002bf848285016200020c565b91505092915050565b620002d38162000375565b82525050565b620002e48162000389565b82525050565b6000604082019050620003016000830185620002c8565b620003106020830184620002d9565b9392505050565b600062000324826200034b565b9050919050565b600062000338826200034b565b9050919050565b60008115159050919050565b600073ffffffffffffffffffffffffffffffffffffffff82169050919050565b6000819050919050565b600062000382826200039d565b9050919050565b600062000396826200036b565b9050919050565b6000620003aa82620003b1565b9050919050565b6000620003be826200034b565b9050919050565b600080fd5b620003d58162000317565b8114620003e157600080fd5b50565b620003ef816200032b565b8114620003fb57600080fd5b50565b62000409816200033f565b81146200041557600080fd5b50565b62000423816200036b565b81146200042f57600080fd5b50565b60805160601c61266a62000474600039600081816101a1015281816102a20152818161037d0152818161043d0152818161052b01526106ba015261266a6000f3fe6080604052600436106200005c5760003560e01c806335842f7414620000615780633ccaca7b14620000815780637e4287be146200008d578063893d20e814620000d1578063c291ea441462000101578063efe4227a1462000131575b600080fd5b6200007f6004803603810190620000799190620007b6565b62000161565b005b6200008b6200033d565b005b3480156200009a57600080fd5b50620000b96004803603810190620000b3919062000752565b620005d3565b604051620000c89190620008f5565b60405180910390f35b348015620000de57600080fd5b50620000e96200068d565b604051620000f891906200085e565b60405180910390f35b3480156200010e57600080fd5b5062000119620006b6565b6040516200012891906200085e565b60405180910390f35b3480156200013e57600080fd5b5062000149620006de565b604051620001589190620008f5565b60405180910390f35b600360009054906101000a900473ffffffffffffffffffffffffffffffffffffffff1673ffffffffffffffffffffffffffffffffffffffff166323b872dd7f000000000000000000000000000000000000000000000000000000000000000073dd870fa1b7c4700f2bd7f44238821c26f7392148846040518463ffffffff1660e01b8152600401620001f693929190620008b8565b602060405180830381600087803b1580156200021157600080fd5b505af115801562000226573d6000803e3d6000fd5b505050506040513d601f19601f820116820180604052508101906200024c919062000784565b50600160009054906101000a900473ffffffffffffffffffffffffffffffffffffffff1673ffffffffffffffffffffffffffffffffffffffff166323b872dd73dd870fa1b7c4700f2bd7f44238821c26f73921487f000000000000000000000000000000000000000000000000000000000000000060016040518463ffffffff1660e01b8152600401620002e3939291906200087b565b602060405180830381600087803b158015620002fe57600080fd5b505af115801562000313573d6000803e3d6000fd5b505050506040513d601f19601f8201168201806040525081019062000339919062000784565b5050565b600160009054906101000a900473ffffffffffffffffffffffffffffffffffffffff1673ffffffffffffffffffffffffffffffffffffffff166323b872dd7f000000000000000000000000000000000000000000000000000000000000000073dd870fa1b7c4700f2bd7f44238821c26f739214860016040518463ffffffff1660e01b8152600401620003d3939291906200087b565b602060405180830381600087803b158015620003ee57600080fd5b505af115801562000403573d6000803e3d6000fd5b505050506040513d601f19601f8201168201806040525081019062000429919062000784565b50600280546200043a91906200094f565b307f00000000000000000000000000000000000000000000000000000000000000006040516200046a90620006e8565b620004789392919062000912565b604051809103906000f08015801562000495573d6000803e3d6000fd5b50600360006101000a81548173ffffffffffffffffffffffffffffffffffffffff021916908373ffffffffffffffffffffffffffffffffffffffff160217905550600360009054906101000a900473ffffffffffffffffffffffffffffffffffffffff1673ffffffffffffffffffffffffffffffffffffffff166323b872dd73dd870fa1b7c4700f2bd7f44238821c26f73921487f0000000000000000000000000000000000000000000000000000000000000000600280546200055a91906200094f565b6040518463ffffffff1660e01b81526004016200057a93929190620008b8565b602060405180830381600087803b1580156200059557600080fd5b505af1158015620005aa573d6000803e3d6000fd5b505050506040513d601f19601f82011682018060405250810190620005d0919062000784565b50565b6000600360009054906101000a900473ffffffffffffffffffffffffffffffffffffffff1673ffffffffffffffffffffffffffffffffffffffff166370a08231836040518263ffffffff1660e01b81526004016200063291906200085e565b60206040518083038186803b1580156200064b57600080fd5b505afa15801562000660573d6000803e3d6000fd5b505050506040513d601f19601f82011682018060405250810190620006869190620007e8565b9050919050565b60008060009054906101000a900473ffffffffffffffffffffffffffffffffffffffff16905090565b60007f0000000000000000000000000000000000000000000000000000000000000000905090565b6000600254905090565b611b918062000aa483390190565b600081359050620007078162000a55565b92915050565b6000815190506200071e8162000a6f565b92915050565b600081359050620007358162000a89565b92915050565b6000815190506200074c8162000a89565b92915050565b6000602082840312156200076b576200076a62000a50565b5b60006200077b84828501620006f6565b91505092915050565b6000602082840312156200079d576200079c62000a50565b5b6000620007ad848285016200070d565b91505092915050565b600060208284031215620007cf57620007ce62000a50565b5b6000620007df8482850162000724565b91505092915050565b60006020828403121562000801576200080062000a50565b5b600062000811848285016200073b565b91505092915050565b6200082581620009d1565b82525050565b620008368162000987565b82525050565b6200084781620009e5565b82525050565b6200085881620009c7565b82525050565b60006020820190506200087560008301846200082b565b92915050565b60006060820190506200089260008301866200081a565b620008a160208301856200081a565b620008b060408301846200083c565b949350505050565b6000606082019050620008cf60008301866200081a565b620008de60208301856200081a565b620008ed60408301846200084d565b949350505050565b60006020820190506200090c60008301846200084d565b92915050565b60006060820190506200092960008301866200084d565b6200093860208301856200082b565b6200094760408301846200081a565b949350505050565b60006200095c82620009c7565b91506200096983620009c7565b9250826200097c576200097b62000a21565b5b828204905092915050565b60006200099482620009a7565b9050919050565b60008115159050919050565b600073ffffffffffffffffffffffffffffffffffffffff82169050919050565b6000819050919050565b6000620009de82620009f9565b9050919050565b6000620009f282620009c7565b9050919050565b600062000a068262000a0d565b9050919050565b600062000a1a82620009a7565b9050919050565b7f4e487b7100000000000000000000000000000000000000000000000000000000600052601260045260246000fd5b600080fd5b62000a608162000987565b811462000a6c57600080fd5b50565b62000a7a816200099b565b811462000a8657600080fd5b50565b62000a9481620009c7565b811462000aa057600080fd5b5056fe60806040523480156200001157600080fd5b5060405162001b9138038062001b91833981810160405281019062000037919062000574565b6040518060400160405280600981526020017f44414920546f6b656e00000000000000000000000000000000000000000000008152506040518060400160405280600381526020017f44414900000000000000000000000000000000000000000000000000000000008152508160039080519060200190620000bb92919062000496565b508060049080519060200190620000d492919062000496565b505050620000fd73dd870fa1b7c4700f2bd7f44238821c26f7392148846200014060201b60201c565b6200012473dd870fa1b7c4700f2bd7f44238821c26f73921488385620002b960201b60201c565b62000137818385620002b960201b60201c565b50505062000919565b600073ffffffffffffffffffffffffffffffffffffffff168273ffffffffffffffffffffffffffffffffffffffff161415620001b3576040517f08c379a0000000000000000000000000000000000000000000000000000000008152600401620001aa906200069a565b60405180910390fd5b620001c7600083836200048c60201b60201c565b8060026000828254620001db9190620006ea565b92505081905550806000808473ffffffffffffffffffffffffffffffffffffffff1673ffffffffffffffffffffffffffffffffffffffff1681526020019081526020016000206000828254620002329190620006ea565b925050819055508173ffffffffffffffffffffffffffffffffffffffff16600073ffffffffffffffffffffffffffffffffffffffff167fddf252ad1be2c89b69c2b068fc378daa952ba7f163c4a11628f55a4df523b3ef83604051620002999190620006bc565b60405180910390a3620002b5600083836200049160201b60201c565b5050565b600073ffffffffffffffffffffffffffffffffffffffff168373ffffffffffffffffffffffffffffffffffffffff1614156200032c576040517f08c379a0000000000000000000000000000000000000000000000000000000008152600401620003239062000678565b60405180910390fd5b600073ffffffffffffffffffffffffffffffffffffffff168273ffffffffffffffffffffffffffffffffffffffff1614156200039f576040517f08c379a0000000000000000000000000000000000000000000000000000000008152600401620003969062000656565b60405180910390fd5b80600160008573ffffffffffffffffffffffffffffffffffffffff1673ffffffffffffffffffffffffffffffffffffffff16815260200190815260200160002060008473ffffffffffffffffffffffffffffffffffffffff1673ffffffffffffffffffffffffffffffffffffffff168152602001908152602001600020819055508173ffffffffffffffffffffffffffffffffffffffff168373ffffffffffffffffffffffffffffffffffffffff167f8c5be1e5ebec7d5bd14f71427d1e84f3dd0314c0f7b2291e5b200ac8c7c3b925836040516200047f9190620006bc565b60405180910390a3505050565b505050565b505050565b828054620004a49062000785565b90600052602060002090601f016020900481019282620004c8576000855562000514565b82601f10620004e357805160ff191683800117855562000514565b8280016001018555821562000514579182015b8281111562000513578251825591602001919060010190620004f6565b5b50905062000523919062000527565b5090565b5b808211156200054257600081600090555060010162000528565b5090565b6000815190506200055781620008e5565b92915050565b6000815190506200056e81620008ff565b92915050565b60008060006060848603121562000590576200058f62000819565b5b6000620005a0868287016200055d565b9350506020620005b38682870162000546565b9250506040620005c68682870162000546565b9150509250925092565b6000620005df602283620006d9565b9150620005ec826200081e565b604082019050919050565b600062000606602483620006d9565b915062000613826200086d565b604082019050919050565b60006200062d601f83620006d9565b91506200063a82620008bc565b602082019050919050565b62000650816200077b565b82525050565b600060208201905081810360008301526200067181620005d0565b9050919050565b600060208201905081810360008301526200069381620005f7565b9050919050565b60006020820190508181036000830152620006b5816200061e565b9050919050565b6000602082019050620006d3600083018462000645565b92915050565b600082825260208201905092915050565b6000620006f7826200077b565b915062000704836200077b565b9250827fffffffffffffffffffffffffffffffffffffffffffffffffffffffffffffffff038211156200073c576200073b620007bb565b5b828201905092915050565b600062000754826200075b565b9050919050565b600073ffffffffffffffffffffffffffffffffffffffff82169050919050565b6000819050919050565b600060028204905060018216806200079e57607f821691505b60208210811415620007b557620007b4620007ea565b5b50919050565b7f4e487b7100000000000000000000000000000000000000000000000000000000600052601160045260246000fd5b7f4e487b7100000000000000000000000000000000000000000000000000000000600052602260045260246000fd5b600080fd5b7f45524332303a20617070726f766520746f20746865207a65726f20616464726560008201527f7373000000000000000000000000000000000000000000000000000000000000602082015250565b7f45524332303a20617070726f76652066726f6d20746865207a65726f2061646460008201527f7265737300000000000000000000000000000000000000000000000000000000602082015250565b7f45524332303a206d696e7420746f20746865207a65726f206164647265737300600082015250565b620008f08162000747565b8114620008fc57600080fd5b50565b6200090a816200077b565b81146200091657600080fd5b50565b61126880620009296000396000f3fe608060405234801561001057600080fd5b50600436106100a95760003560e01c80633950935111610071578063395093511461016857806370a082311461019857806395d89b41146101c8578063a457c2d7146101e6578063a9059cbb14610216578063dd62ed3e14610246576100a9565b806306fdde03146100ae578063095ea7b3146100cc57806318160ddd146100fc57806323b872dd1461011a578063313ce5671461014a575b600080fd5b6100b6610276565b6040516100c39190610d29565b60405180910390f35b6100e660048036038101906100e19190610b73565b610308565b6040516100f39190610d0e565b60405180910390f35b61010461032b565b6040516101119190610e2b565b60405180910390f35b610134600480360381019061012f9190610b20565b610335565b6040516101419190610d0e565b60405180910390f35b610152610364565b60405161015f9190610e46565b60405180910390f35b610182600480360381019061017d9190610b73565b61036d565b60405161018f9190610d0e565b60405180910390f35b6101b260048036038101906101ad9190610ab3565b6103a4565b6040516101bf9190610e2b565b60405180910390f35b6101d06103ec565b6040516101dd9190610d29565b60405180910390f35b61020060048036038101906101fb9190610b73565b61047e565b60405161020d9190610d0e565b60405180910390f35b610230600480360381019061022b9190610b73565b6104f5565b60405161023d9190610d0e565b60405180910390f35b610260600480360381019061025b9190610ae0565b610518565b60405161026d9190610e2b565b60405180910390f35b60606003805461028590610f5b565b80601f01602080910402602001604051908101604052809291908181526020018280546102b190610f5b565b80156102fe5780601f106102d3576101008083540402835291602001916102fe565b820191906000526020600020905b8154815290600101906020018083116102e157829003601f168201915b5050505050905090565b60008061031361059f565b90506103208185856105a7565b600191505092915050565b6000600254905090565b60008061034061059f565b905061034d858285610772565b6103588585856107fe565b60019150509392505050565b60006012905090565b60008061037861059f565b905061039981858561038a8589610518565b6103949190610e7d565b6105a7565b600191505092915050565b60008060008373ffffffffffffffffffffffffffffffffffffffff1673ffffffffffffffffffffffffffffffffffffffff168152602001908152602001600020549050919050565b6060600480546103fb90610f5b565b80601f016020809104026020016040519081016040528092919081815260200182805461042790610f5b565b80156104745780601f1061044957610100808354040283529160200191610474565b820191906000526020600020905b81548152906001019060200180831161045757829003601f168201915b5050505050905090565b60008061048961059f565b905060006104978286610518565b9050838110156104dc576040517f08c379a00000000000000000000000000000000000000000000000000000000081526004016104d390610e0b565b60405180910390fd5b6104e982868684036105a7565b60019250505092915050565b60008061050061059f565b905061050d8185856107fe565b600191505092915050565b6000600160008473ffffffffffffffffffffffffffffffffffffffff1673ffffffffffffffffffffffffffffffffffffffff16815260200190815260200160002060008373ffffffffffffffffffffffffffffffffffffffff1673ffffffffffffffffffffffffffffffffffffffff16815260200190815260200160002054905092915050565b600033905090565b600073ffffffffffffffffffffffffffffffffffffffff168373ffffffffffffffffffffffffffffffffffffffff161415610617576040517f08c379a000000000000000000000000000000000000000000000000000000000815260040161060e90610deb565b60405180910390fd5b600073ffffffffffffffffffffffffffffffffffffffff168273ffffffffffffffffffffffffffffffffffffffff161415610687576040517f08c379a000000000000000000000000000000000000000000000000000000000815260040161067e90610d6b565b60405180910390fd5b80600160008573ffffffffffffffffffffffffffffffffffffffff1673ffffffffffffffffffffffffffffffffffffffff16815260200190815260200160002060008473ffffffffffffffffffffffffffffffffffffffff1673ffffffffffffffffffffffffffffffffffffffff168152602001908152602001600020819055508173ffffffffffffffffffffffffffffffffffffffff168373ffffffffffffffffffffffffffffffffffffffff167f8c5be1e5ebec7d5bd14f71427d1e84f3dd0314c0f7b2291e5b200ac8c7c3b925836040516107659190610e2b565b60405180910390a3505050565b600061077e8484610518565b90507fffffffffffffffffffffffffffffffffffffffffffffffffffffffffffffffff81146107f857818110156107ea576040517f08c379a00000000000000000000000000000000000000000000000000000000081526004016107e190610d8b565b60405180910390fd5b6107f784848484036105a7565b5b50505050565b600073ffffffffffffffffffffffffffffffffffffffff168373ffffffffffffffffffffffffffffffffffffffff16141561086e576040517f08c379a000000000000000000000000000000000000000000000000000000000815260040161086590610dcb565b60405180910390fd5b600073ffffffffffffffffffffffffffffffffffffffff168273ffffffffffffffffffffffffffffffffffffffff1614156108de576040517f08c379a00000000000000000000000000000000000000000000000000000000081526004016108d590610d4b565b60405180910390fd5b6108e9838383610a7f565b60008060008573ffffffffffffffffffffffffffffffffffffffff1673ffffffffffffffffffffffffffffffffffffffff1681526020019081526020016000205490508181101561096f576040517f08c379a000000000000000000000000000000000000000000000000000000000815260040161096690610dab565b60405180910390fd5b8181036000808673ffffffffffffffffffffffffffffffffffffffff1673ffffffffffffffffffffffffffffffffffffffff16815260200190815260200160002081905550816000808573ffffffffffffffffffffffffffffffffffffffff1673ffffffffffffffffffffffffffffffffffffffff1681526020019081526020016000206000828254610a029190610e7d565b925050819055508273ffffffffffffffffffffffffffffffffffffffff168473ffffffffffffffffffffffffffffffffffffffff167fddf252ad1be2c89b69c2b068fc378daa952ba7f163c4a11628f55a4df523b3ef84604051610a669190610e2b565b60405180910390a3610a79848484610a84565b50505050565b505050565b505050565b600081359050610a9881611204565b92915050565b600081359050610aad8161121b565b92915050565b600060208284031215610ac957610ac8610feb565b5b6000610ad784828501610a89565b91505092915050565b60008060408385031215610af757610af6610feb565b5b6000610b0585828601610a89565b9250506020610b1685828601610a89565b9150509250929050565b600080600060608486031215610b3957610b38610feb565b5b6000610b4786828701610a89565b9350506020610b5886828701610a89565b9250506040610b6986828701610a9e565b9150509250925092565b60008060408385031215610b8a57610b89610feb565b5b6000610b9885828601610a89565b9250506020610ba985828601610a9e565b9150509250929050565b610bbc81610ee5565b82525050565b6000610bcd82610e61565b610bd78185610e6c565b9350610be7818560208601610f28565b610bf081610ff0565b840191505092915050565b6000610c08602383610e6c565b9150610c1382611001565b604082019050919050565b6000610c2b602283610e6c565b9150610c3682611050565b604082019050919050565b6000610c4e601d83610e6c565b9150610c598261109f565b602082019050919050565b6000610c71602683610e6c565b9150610c7c826110c8565b604082019050919050565b6000610c94602583610e6c565b9150610c9f82611117565b604082019050919050565b6000610cb7602483610e6c565b9150610cc282611166565b604082019050919050565b6000610cda602583610e6c565b9150610ce5826111b5565b604082019050919050565b610cf981610f11565b82525050565b610d0881610f1b565b82525050565b6000602082019050610d236000830184610bb3565b92915050565b60006020820190508181036000830152610d438184610bc2565b905092915050565b60006020820190508181036000830152610d6481610bfb565b9050919050565b60006020820190508181036000830152610d8481610c1e565b9050919050565b60006020820190508181036000830152610da481610c41565b9050919050565b60006020820190508181036000830152610dc481610c64565b9050919050565b60006020820190508181036000830152610de481610c87565b9050919050565b60006020820190508181036000830152610e0481610caa565b9050919050565b60006020820190508181036000830152610e2481610ccd565b9050919050565b6000602082019050610e406000830184610cf0565b92915050565b6000602082019050610e5b6000830184610cff565b92915050565b600081519050919050565b600082825260208201905092915050565b6000610e8882610f11565b9150610e9383610f11565b9250827fffffffffffffffffffffffffffffffffffffffffffffffffffffffffffffffff03821115610ec857610ec7610f8d565b5b828201905092915050565b6000610ede82610ef1565b9050919050565b60008115159050919050565b600073ffffffffffffffffffffffffffffffffffffffff82169050919050565b6000819050919050565b600060ff82169050919050565b60005b83811015610f46578082015181840152602081019050610f2b565b83811115610f55576000848401525b50505050565b60006002820490506001821680610f7357607f821691505b60208210811415610f8757610f86610fbc565b5b50919050565b7f4e487b7100000000000000000000000000000000000000000000000000000000600052601160045260246000fd5b7f4e487b7100000000000000000000000000000000000000000000000000000000600052602260045260246000fd5b600080fd5b6000601f19601f8301169050919050565b7f45524332303a207472616e7366657220746f20746865207a65726f206164647260008201527f6573730000000000000000000000000000000000000000000000000000000000602082015250565b7f45524332303a20617070726f766520746f20746865207a65726f20616464726560008201527f7373000000000000000000000000000000000000000000000000000000000000602082015250565b7f45524332303a20696e73756666696369656e7420616c6c6f77616e6365000000600082015250565b7f45524332303a207472616e7366657220616d6f756e742065786365656473206260008201527f616c616e63650000000000000000000000000000000000000000000000000000602082015250565b7f45524332303a207472616e736665722066726f6d20746865207a65726f20616460008201527f6472657373000000000000000000000000000000000000000000000000000000602082015250565b7f45524332303a20617070726f76652066726f6d20746865207a65726f2061646460008201527f7265737300000000000000000000000000000000000000000000000000000000602082015250565b7f45524332303a2064656372656173656420616c6c6f77616e63652062656c6f7760008201527f207a65726f000000000000000000000000000000000000000000000000000000602082015250565b61120d81610ed3565b811461121857600080fd5b50565b61122481610f11565b811461122f57600080fd5b5056fea26469706673582212201ed2da22d403e3378efe424030b1a77af9500420f8ba93c547748638dce0832f64736f6c63430008070033a26469706673582212203bc684d96a5aefe4c3a07052c544d4bcb91a0f852f28867b5ce5404ae4c6469064736f6c63430008070033a264697066735822122046f8efe1dcaebf08b6c6f1c61910e7b71054be2ac6f62c0d1a2bca67b2fbf84964736f6c63430008070033",
  "devdoc": {
    "kind": "dev",
    "methods": {},
    "version": 1
  },
  "userdoc": {
    "kind": "user",
    "methods": {},
    "version": 1
  },
  "storageLayout": {
    "storage": [
      {
        "astId": 1185,
        "contract": "contracts/VaultManager.sol:VaultManager",
        "label": "vaultTokenMapping",
        "offset": 0,
        "slot": "0",
        "type": "t_mapping(t_address,t_contract(Vault)1175)"
      },
      {
        "astId": 1187,
        "contract": "contracts/VaultManager.sol:VaultManager",
        "label": "number",
        "offset": 0,
        "slot": "1",
        "type": "t_uint256"
      }
    ],
    "types": {
      "t_address": {
        "encoding": "inplace",
        "label": "address",
        "numberOfBytes": "20"
      },
      "t_contract(Vault)1175": {
        "encoding": "inplace",
        "label": "contract Vault",
        "numberOfBytes": "20"
      },
      "t_mapping(t_address,t_contract(Vault)1175)": {
        "encoding": "mapping",
        "key": "t_address",
        "label": "mapping(address => contract Vault)",
        "numberOfBytes": "32",
        "value": "t_contract(Vault)1175"
      },
      "t_uint256": {
        "encoding": "inplace",
        "label": "uint256",
        "numberOfBytes": "32"
      }
    }
  }
}